{
  "_format": "hh-sol-artifact-1",
  "contractName": "Staking",
  "sourceName": "contracts/Staking.sol",
  "abi": [
    {
      "inputs": [],
      "stateMutability": "nonpayable",
      "type": "constructor"
    },
    {
      "anonymous": false,
      "inputs": [
        {
          "indexed": false,
          "internalType": "address",
          "name": "previousAdmin",
          "type": "address"
        },
        {
          "indexed": false,
          "internalType": "address",
          "name": "newAdmin",
          "type": "address"
        }
      ],
      "name": "AdminChanged",
      "type": "event"
    },
    {
      "anonymous": false,
      "inputs": [
        {
          "indexed": true,
          "internalType": "address",
          "name": "staker",
          "type": "address"
        },
        {
          "indexed": false,
          "internalType": "uint256",
          "name": "tokens",
          "type": "uint256"
        },
        {
          "indexed": true,
          "internalType": "address",
          "name": "escrowAddress",
          "type": "address"
        },
        {
          "indexed": false,
          "internalType": "uint256",
          "name": "closedAt",
          "type": "uint256"
        }
      ],
      "name": "AllocationClosed",
      "type": "event"
    },
    {
      "anonymous": false,
      "inputs": [
        {
          "indexed": true,
          "internalType": "address",
          "name": "beacon",
          "type": "address"
        }
      ],
      "name": "BeaconUpgraded",
      "type": "event"
    },
    {
      "anonymous": false,
      "inputs": [
        {
          "indexed": false,
          "internalType": "uint8",
          "name": "version",
          "type": "uint8"
        }
      ],
      "name": "Initialized",
      "type": "event"
    },
    {
      "anonymous": false,
      "inputs": [
        {
          "indexed": true,
          "internalType": "address",
          "name": "previousOwner",
          "type": "address"
        },
        {
          "indexed": true,
          "internalType": "address",
          "name": "newOwner",
          "type": "address"
        }
      ],
      "name": "OwnershipTransferred",
      "type": "event"
    },
    {
      "anonymous": false,
      "inputs": [
        {
          "indexed": true,
          "internalType": "uint32",
          "name": "lockPeriod",
          "type": "uint32"
        }
      ],
      "name": "SetLockPeriod",
      "type": "event"
    },
    {
      "anonymous": false,
      "inputs": [
        {
          "indexed": true,
          "internalType": "uint256",
          "name": "minimumStake",
          "type": "uint256"
        }
      ],
      "name": "SetMinumumStake",
      "type": "event"
    },
    {
      "anonymous": false,
      "inputs": [
        {
          "indexed": true,
          "internalType": "address",
          "name": "rewardPool",
          "type": "address"
        }
      ],
      "name": "SetRewardPool",
      "type": "event"
    },
    {
      "anonymous": false,
      "inputs": [
        {
          "indexed": true,
          "internalType": "address",
          "name": "staker",
          "type": "address"
        },
        {
          "indexed": false,
          "internalType": "uint256",
          "name": "tokens",
          "type": "uint256"
        },
        {
          "indexed": true,
          "internalType": "address",
          "name": "escrowAddress",
          "type": "address"
        },
        {
          "indexed": false,
          "internalType": "uint256",
          "name": "createdAt",
          "type": "uint256"
        }
      ],
      "name": "StakeAllocated",
      "type": "event"
    },
    {
      "anonymous": false,
      "inputs": [
        {
          "indexed": true,
          "internalType": "address",
          "name": "staker",
          "type": "address"
        },
        {
          "indexed": false,
          "internalType": "uint256",
          "name": "tokens",
          "type": "uint256"
        }
      ],
      "name": "StakeDeposited",
      "type": "event"
    },
    {
      "anonymous": false,
      "inputs": [
        {
          "indexed": true,
          "internalType": "address",
          "name": "staker",
          "type": "address"
        },
        {
          "indexed": false,
          "internalType": "uint256",
          "name": "tokens",
          "type": "uint256"
        },
        {
          "indexed": false,
          "internalType": "uint256",
          "name": "until",
          "type": "uint256"
        }
      ],
      "name": "StakeLocked",
      "type": "event"
    },
    {
      "anonymous": false,
      "inputs": [
        {
          "indexed": true,
          "internalType": "address",
          "name": "staker",
          "type": "address"
        },
        {
          "indexed": false,
          "internalType": "uint256",
          "name": "tokens",
          "type": "uint256"
        },
        {
          "indexed": true,
          "internalType": "address",
          "name": "escrowAddress",
          "type": "address"
        },
        {
          "indexed": false,
          "internalType": "address",
          "name": "slasher",
          "type": "address"
        }
      ],
      "name": "StakeSlashed",
      "type": "event"
    },
    {
      "anonymous": false,
      "inputs": [
        {
          "indexed": true,
          "internalType": "address",
          "name": "staker",
          "type": "address"
        },
        {
          "indexed": false,
          "internalType": "uint256",
          "name": "tokens",
          "type": "uint256"
        }
      ],
      "name": "StakeWithdrawn",
      "type": "event"
    },
    {
      "anonymous": false,
      "inputs": [
        {
          "indexed": true,
          "internalType": "address",
          "name": "implementation",
          "type": "address"
        }
      ],
      "name": "Upgraded",
      "type": "event"
    },
    {
      "inputs": [
        {
          "internalType": "address",
          "name": "_escrowAddress",
          "type": "address"
        },
        {
          "internalType": "uint256",
          "name": "_tokens",
          "type": "uint256"
        }
      ],
      "name": "allocate",
      "outputs": [],
      "stateMutability": "nonpayable",
      "type": "function"
    },
    {
      "inputs": [
        {
          "internalType": "address",
          "name": "",
          "type": "address"
        }
      ],
      "name": "allocations",
      "outputs": [
        {
          "internalType": "address",
          "name": "escrowAddress",
          "type": "address"
        },
        {
          "internalType": "address",
          "name": "staker",
          "type": "address"
        },
        {
          "internalType": "uint256",
          "name": "tokens",
          "type": "uint256"
        },
        {
          "internalType": "uint256",
          "name": "createdAt",
          "type": "uint256"
        },
        {
          "internalType": "uint256",
          "name": "closedAt",
          "type": "uint256"
        }
      ],
      "stateMutability": "view",
      "type": "function"
    },
    {
      "inputs": [
        {
          "internalType": "address",
          "name": "_escrowAddress",
          "type": "address"
        }
      ],
      "name": "closeAllocation",
      "outputs": [],
      "stateMutability": "nonpayable",
      "type": "function"
    },
    {
      "inputs": [
        {
          "internalType": "address",
          "name": "_escrowAddress",
          "type": "address"
        }
      ],
      "name": "getAllocation",
      "outputs": [
        {
          "components": [
            {
              "internalType": "address",
              "name": "escrowAddress",
              "type": "address"
            },
            {
              "internalType": "address",
              "name": "staker",
              "type": "address"
            },
            {
              "internalType": "uint256",
              "name": "tokens",
              "type": "uint256"
            },
            {
              "internalType": "uint256",
              "name": "createdAt",
              "type": "uint256"
            },
            {
              "internalType": "uint256",
              "name": "closedAt",
              "type": "uint256"
            }
          ],
          "internalType": "struct IStaking.Allocation",
          "name": "",
          "type": "tuple"
        }
      ],
      "stateMutability": "view",
      "type": "function"
    },
    {
      "inputs": [
        {
          "internalType": "address",
          "name": "_escrowAddress",
          "type": "address"
        }
      ],
      "name": "getAllocationState",
      "outputs": [
        {
          "internalType": "enum IStaking.AllocationState",
          "name": "",
          "type": "uint8"
        }
      ],
      "stateMutability": "view",
      "type": "function"
    },
    {
      "inputs": [],
      "name": "getListOfStakers",
      "outputs": [
        {
          "internalType": "address[]",
          "name": "",
          "type": "address[]"
        },
        {
          "components": [
            {
              "internalType": "uint256",
              "name": "tokensStaked",
              "type": "uint256"
            },
            {
              "internalType": "uint256",
              "name": "tokensAllocated",
              "type": "uint256"
            },
            {
              "internalType": "uint256",
              "name": "tokensLocked",
              "type": "uint256"
            },
            {
              "internalType": "uint256",
              "name": "tokensLockedUntil",
              "type": "uint256"
            }
          ],
          "internalType": "struct Stakes.Staker[]",
          "name": "",
          "type": "tuple[]"
        }
      ],
      "stateMutability": "view",
      "type": "function"
    },
    {
      "inputs": [
        {
          "internalType": "address",
          "name": "_staker",
          "type": "address"
        }
      ],
      "name": "getStakedTokens",
      "outputs": [
        {
          "internalType": "uint256",
          "name": "",
          "type": "uint256"
        }
      ],
      "stateMutability": "view",
      "type": "function"
    },
    {
      "inputs": [
        {
          "internalType": "address",
          "name": "_staker",
          "type": "address"
        }
      ],
      "name": "getStaker",
      "outputs": [
        {
          "components": [
            {
              "internalType": "uint256",
              "name": "tokensStaked",
              "type": "uint256"
            },
            {
              "internalType": "uint256",
              "name": "tokensAllocated",
              "type": "uint256"
            },
            {
              "internalType": "uint256",
              "name": "tokensLocked",
              "type": "uint256"
            },
            {
              "internalType": "uint256",
              "name": "tokensLockedUntil",
              "type": "uint256"
            }
          ],
          "internalType": "struct Stakes.Staker",
          "name": "",
          "type": "tuple"
        }
      ],
      "stateMutability": "view",
      "type": "function"
    },
    {
      "inputs": [
        {
          "internalType": "address",
          "name": "_staker",
          "type": "address"
        }
      ],
      "name": "hasAvailableStake",
      "outputs": [
        {
          "internalType": "bool",
          "name": "",
          "type": "bool"
        }
      ],
      "stateMutability": "view",
      "type": "function"
    },
    {
      "inputs": [
        {
          "internalType": "address",
          "name": "_staker",
          "type": "address"
        }
      ],
      "name": "hasStake",
      "outputs": [
        {
          "internalType": "bool",
          "name": "",
          "type": "bool"
        }
      ],
      "stateMutability": "view",
      "type": "function"
    },
    {
      "inputs": [
        {
          "internalType": "address",
          "name": "_token",
          "type": "address"
        },
        {
          "internalType": "uint256",
          "name": "_minimumStake",
          "type": "uint256"
        },
        {
          "internalType": "uint32",
          "name": "_lockPeriod",
          "type": "uint32"
        }
      ],
      "name": "initialize",
      "outputs": [],
      "stateMutability": "payable",
      "type": "function"
    },
    {
      "inputs": [
        {
          "internalType": "address",
          "name": "_escrowAddress",
          "type": "address"
        }
      ],
      "name": "isAllocation",
      "outputs": [
        {
          "internalType": "bool",
          "name": "",
          "type": "bool"
        }
      ],
      "stateMutability": "view",
      "type": "function"
    },
    {
      "inputs": [],
      "name": "lockPeriod",
      "outputs": [
        {
          "internalType": "uint32",
          "name": "",
          "type": "uint32"
        }
      ],
      "stateMutability": "view",
      "type": "function"
    },
    {
      "inputs": [],
      "name": "minimumStake",
      "outputs": [
        {
          "internalType": "uint256",
          "name": "",
          "type": "uint256"
        }
      ],
      "stateMutability": "view",
      "type": "function"
    },
    {
      "inputs": [],
      "name": "owner",
      "outputs": [
        {
          "internalType": "address",
          "name": "",
          "type": "address"
        }
      ],
      "stateMutability": "view",
      "type": "function"
    },
    {
      "inputs": [],
      "name": "proxiableUUID",
      "outputs": [
        {
          "internalType": "bytes32",
          "name": "",
          "type": "bytes32"
        }
      ],
      "stateMutability": "view",
      "type": "function"
    },
    {
      "inputs": [],
      "name": "renounceOwnership",
      "outputs": [],
      "stateMutability": "nonpayable",
      "type": "function"
    },
    {
      "inputs": [],
      "name": "rewardPool",
      "outputs": [
        {
          "internalType": "address",
          "name": "",
          "type": "address"
        }
      ],
      "stateMutability": "view",
      "type": "function"
    },
    {
      "inputs": [
        {
          "internalType": "uint32",
          "name": "_lockPeriod",
          "type": "uint32"
        }
      ],
      "name": "setLockPeriod",
      "outputs": [],
      "stateMutability": "nonpayable",
      "type": "function"
    },
    {
      "inputs": [
        {
          "internalType": "uint256",
          "name": "_minimumStake",
          "type": "uint256"
        }
      ],
      "name": "setMinimumStake",
      "outputs": [],
      "stateMutability": "nonpayable",
      "type": "function"
    },
    {
      "inputs": [
        {
          "internalType": "address",
          "name": "_rewardPool",
          "type": "address"
        }
      ],
      "name": "setRewardPool",
      "outputs": [],
      "stateMutability": "nonpayable",
      "type": "function"
    },
    {
      "inputs": [
        {
          "internalType": "address",
          "name": "_slasher",
          "type": "address"
        },
        {
          "internalType": "address",
          "name": "_staker",
          "type": "address"
        },
        {
          "internalType": "address",
          "name": "_escrowAddress",
          "type": "address"
        },
        {
          "internalType": "uint256",
          "name": "_tokens",
          "type": "uint256"
        }
      ],
      "name": "slash",
      "outputs": [],
      "stateMutability": "nonpayable",
      "type": "function"
    },
    {
      "inputs": [
        {
          "internalType": "uint256",
          "name": "_tokens",
          "type": "uint256"
        }
      ],
      "name": "stake",
      "outputs": [],
      "stateMutability": "nonpayable",
      "type": "function"
    },
    {
      "inputs": [
        {
          "internalType": "uint256",
          "name": "",
          "type": "uint256"
        }
      ],
      "name": "stakers",
      "outputs": [
        {
          "internalType": "address",
          "name": "",
          "type": "address"
        }
      ],
      "stateMutability": "view",
      "type": "function"
    },
    {
      "inputs": [
        {
          "internalType": "address",
          "name": "",
          "type": "address"
        }
      ],
      "name": "stakes",
      "outputs": [
        {
          "internalType": "uint256",
          "name": "tokensStaked",
          "type": "uint256"
        },
        {
          "internalType": "uint256",
          "name": "tokensAllocated",
          "type": "uint256"
        },
        {
          "internalType": "uint256",
          "name": "tokensLocked",
          "type": "uint256"
        },
        {
          "internalType": "uint256",
          "name": "tokensLockedUntil",
          "type": "uint256"
        }
      ],
      "stateMutability": "view",
      "type": "function"
    },
    {
      "inputs": [],
      "name": "token",
      "outputs": [
        {
          "internalType": "address",
          "name": "",
          "type": "address"
        }
      ],
      "stateMutability": "view",
      "type": "function"
    },
    {
      "inputs": [
        {
          "internalType": "address",
          "name": "newOwner",
          "type": "address"
        }
      ],
      "name": "transferOwnership",
      "outputs": [],
      "stateMutability": "nonpayable",
      "type": "function"
    },
    {
      "inputs": [
        {
          "internalType": "uint256",
          "name": "_tokens",
          "type": "uint256"
        }
      ],
      "name": "unstake",
      "outputs": [],
      "stateMutability": "nonpayable",
      "type": "function"
    },
    {
      "inputs": [
        {
          "internalType": "address",
          "name": "newImplementation",
          "type": "address"
        }
      ],
      "name": "upgradeTo",
      "outputs": [],
      "stateMutability": "nonpayable",
      "type": "function"
    },
    {
      "inputs": [
        {
          "internalType": "address",
          "name": "newImplementation",
          "type": "address"
        },
        {
          "internalType": "bytes",
          "name": "data",
          "type": "bytes"
        }
      ],
      "name": "upgradeToAndCall",
      "outputs": [],
      "stateMutability": "payable",
      "type": "function"
    },
    {
      "inputs": [],
      "name": "withdraw",
      "outputs": [],
      "stateMutability": "nonpayable",
      "type": "function"
    }
  ],
  "bytecode": "0x60a0604052306080523480156200001557600080fd5b506200002062000026565b620000e7565b600054610100900460ff1615620000935760405162461bcd60e51b815260206004820152602760248201527f496e697469616c697a61626c653a20636f6e747261637420697320696e697469604482015266616c697a696e6760c81b606482015260840160405180910390fd5b60005460ff90811614620000e5576000805460ff191660ff9081179091556040519081527f7f26b83ff96e1f2b6a682f133852f6798a09c465da95921460cefb38474024989060200160405180910390a15b565b608051613d956200011f60003960008181610b3a01528181610bea01528181611042015281816110f2015261123b0152613d956000f3fe6080604052600436106101d85760003560e01c80636c5ac81e11610102578063b78b52df11610095578063f2fde38b11610064578063f2fde38b146106f6578063f489f23b14610716578063fc0c546a14610736578063fd5e6dd11461076357600080fd5b8063b78b52df1461065b578063e73e14bf1461067b578063ec5ffac2146106c0578063f1d60d66146106d657600080fd5b80638da5cb5b116100d15780638da5cb5b146105b657806398c657dc146105e1578063a23c44b11461060e578063a694fc3a1461063b57600080fd5b80636c5ac81e1461054b57806370b97cb51461055e578063715018a61461058157806378238c371461059657600080fd5b80633ccfd60b1161017a57806352d1902d1161014957806352d1902d1461047357806363c28db11461049657806366666aa9146104d957806368f39a071461052b57600080fd5b80633ccfd60b146103765780633fd8b02f1461038b5780634f1ef286146103bd57806352a9039c146103d057600080fd5b8063233e9903116101b6578063233e9903146102f45780632e17de78146103165780633659cfe6146103365780633aa63c611461035657600080fd5b80630e022923146101dd57806316934fc4146102625780631af963aa146102c4575b600080fd5b3480156101e957600080fd5b506101fd6101f836600461378b565b610783565b6040516102599190600060a08201905073ffffffffffffffffffffffffffffffffffffffff8084511683528060208501511660208401525060408301516040830152606083015160608301526080830151608083015292915050565b60405180910390f35b34801561026e57600080fd5b506102a461027d36600461378b565b60cd6020526000908152604090208054600182015460028301546003909301549192909184565b604080519485526020850193909352918301526060820152608001610259565b3480156102d057600080fd5b506102e46102df36600461378b565b6107f0565b6040519015158152602001610259565b34801561030057600080fd5b5061031461030f3660046137a6565b610857565b005b34801561032257600080fd5b506103146103313660046137a6565b61086b565b34801561034257600080fd5b5061031461035136600461378b565b610b22565b34801561036257600080fd5b506103146103713660046137bf565b610d25565b34801561038257600080fd5b5061031461101f565b34801561039757600080fd5b5060cc546103a89063ffffffff1681565b60405163ffffffff9091168152602001610259565b6103146103cb366004613839565b61102a565b3480156103dc57600080fd5b506104336103eb36600461378b565b60cf602052600090815260409020805460018201546002830154600384015460049094015473ffffffffffffffffffffffffffffffffffffffff938416949390921692909185565b6040805173ffffffffffffffffffffffffffffffffffffffff9687168152959094166020860152928401919091526060830152608082015260a001610259565b34801561047f57600080fd5b50610488611221565b604051908152602001610259565b3480156104a257600080fd5b506104886104b136600461378b565b73ffffffffffffffffffffffffffffffffffffffff16600090815260cd602052604090205490565b3480156104e557600080fd5b5060ca546105069073ffffffffffffffffffffffffffffffffffffffff1681565b60405173ffffffffffffffffffffffffffffffffffffffff9091168152602001610259565b34801561053757600080fd5b5061031461054636600461378b565b61130d565b61031461055936600461392d565b611393565b34801561056a57600080fd5b50610573611533565b604051610259929190613969565b34801561058d57600080fd5b50610314611760565b3480156105a257600080fd5b506103146105b136600461378b565b611772565b3480156105c257600080fd5b5060335473ffffffffffffffffffffffffffffffffffffffff16610506565b3480156105ed57600080fd5b506106016105fc36600461378b565b611783565b6040516102599190613a54565b34801561061a57600080fd5b5061062e61062936600461378b565b61178e565b6040516102599190613a95565b34801561064757600080fd5b506103146106563660046137a6565b611814565b34801561066757600080fd5b50610314610676366004613ac0565b611a72565b34801561068757600080fd5b506102e461069636600461378b565b73ffffffffffffffffffffffffffffffffffffffff16600090815260cd6020526040902054151590565b3480156106cc57600080fd5b5061048860cb5481565b3480156106e257600080fd5b506102e46106f136600461378b565b611a7d565b34801561070257600080fd5b5061031461071136600461378b565b611aa2565b34801561072257600080fd5b50610314610731366004613aea565b611b56565b34801561074257600080fd5b5060c9546105069073ffffffffffffffffffffffffffffffffffffffff1681565b34801561076f57600080fd5b5061050661077e3660046137a6565b611b67565b6107e16040518060a00160405280600073ffffffffffffffffffffffffffffffffffffffff168152602001600073ffffffffffffffffffffffffffffffffffffffff1681526020016000815260200160008152602001600081525090565b6107ea82611b9e565b92915050565b73ffffffffffffffffffffffffffffffffffffffff8116600090815260cd60209081526040808320815160808101835281548152600182015493810193909352600281015491830191909152600301546060820152819061085090611c66565b1192915050565b61085f611c7c565b61086881611cfd565b50565b33600090815260cd60205260409020816108e6576040517f08c379a000000000000000000000000000000000000000000000000000000000815260206004820152601960248201527f4d757374206265206120706f736974697665206e756d6265720000000000000060448201526064015b60405180910390fd5b60408051608081018252825481526001830154602082015260028301549181019190915260038201546060820152829061091f90611c66565b1015610987576040517f08c379a000000000000000000000000000000000000000000000000000000000815260206004820152601e60248201527f496e73756666696369656e7420616d6f756e7420746f20756e7374616b65000060448201526064016108dd565b60006109cf836109c984604051806080016040529081600082015481526020016001820154815260200160028201548152602001600382015481525050611d9a565b90611daa565b90508015806109e0575060cb548110155b610a6c576040517f08c379a000000000000000000000000000000000000000000000000000000000815260206004820152602a60248201527f546f74616c207374616b652069732062656c6f7720746865206d696e696d756d60448201527f207468726573686f6c640000000000000000000000000000000000000000000060648201526084016108dd565b60408051608081018252835481526001840154602082015260028401549181019190915260038301546060820152600090610aa690611df3565b90508015610ab757610ab733611e20565b60cc54610ad1908490869063ffffffff90811690611f3216565b6002830154600384015460405133927fa5ae833d0bb1dcd632d98a8b70973e8516812898e19bf27b70071ebc8dc52c0192610b1492918252602082015260400190565b60405180910390a250505050565b3073ffffffffffffffffffffffffffffffffffffffff7f0000000000000000000000000000000000000000000000000000000000000000161415610be8576040517f08c379a000000000000000000000000000000000000000000000000000000000815260206004820152602c60248201527f46756e6374696f6e206d7573742062652063616c6c6564207468726f7567682060448201527f64656c656761746563616c6c000000000000000000000000000000000000000060648201526084016108dd565b7f000000000000000000000000000000000000000000000000000000000000000073ffffffffffffffffffffffffffffffffffffffff16610c5d7f360894a13ba1a3210667c828492db98dca3e2076cc3735a920a3ca505d382bbc5473ffffffffffffffffffffffffffffffffffffffff1690565b73ffffffffffffffffffffffffffffffffffffffff1614610d00576040517f08c379a000000000000000000000000000000000000000000000000000000000815260206004820152602c60248201527f46756e6374696f6e206d7573742062652063616c6c6564207468726f7567682060448201527f6163746976652070726f7879000000000000000000000000000000000000000060648201526084016108dd565b610d0981611f8a565b6040805160008082526020820190925261086891839190611f92565b610d2d611c7c565b73ffffffffffffffffffffffffffffffffffffffff8216610daa576040517f08c379a000000000000000000000000000000000000000000000000000000000815260206004820152601760248201527f4d75737420626520612076616c6964206164647265737300000000000000000060448201526064016108dd565b73ffffffffffffffffffffffffffffffffffffffff808416600090815260cd60209081526040808320938616835260cf909152902082610e46576040517f08c379a000000000000000000000000000000000000000000000000000000000815260206004820152601960248201527f4d757374206265206120706f736974697665206e756d6265720000000000000060448201526064016108dd565b8060020154831115610eda576040517f08c379a000000000000000000000000000000000000000000000000000000000815260206004820152602260248201527f536c61736820746f6b656e732065786365656420616c6c6f6361746564206f6e60448201527f657300000000000000000000000000000000000000000000000000000000000060648201526084016108dd565b610ee482846121a5565b6002810154610ef39084611daa565b6002820155610f0282846121c0565b60ca54610f259073ffffffffffffffffffffffffffffffffffffffff16846121d2565b60ca546040517fe2ff99ef00000000000000000000000000000000000000000000000000000000815273ffffffffffffffffffffffffffffffffffffffff868116600483015287811660248301528881166044830152606482018690529091169063e2ff99ef90608401600060405180830381600087803b158015610fa957600080fd5b505af1158015610fbd573d6000803e3d6000fd5b50506040805186815273ffffffffffffffffffffffffffffffffffffffff8a811660208301528089169450891692507f71a8c830f4b619fc8248691f28f33646d6d9553a9fe6f7ba80e179fd391779ba910160405180910390a3505050505050565b61102833611e20565b565b3073ffffffffffffffffffffffffffffffffffffffff7f00000000000000000000000000000000000000000000000000000000000000001614156110f0576040517f08c379a000000000000000000000000000000000000000000000000000000000815260206004820152602c60248201527f46756e6374696f6e206d7573742062652063616c6c6564207468726f7567682060448201527f64656c656761746563616c6c000000000000000000000000000000000000000060648201526084016108dd565b7f000000000000000000000000000000000000000000000000000000000000000073ffffffffffffffffffffffffffffffffffffffff166111657f360894a13ba1a3210667c828492db98dca3e2076cc3735a920a3ca505d382bbc5473ffffffffffffffffffffffffffffffffffffffff1690565b73ffffffffffffffffffffffffffffffffffffffff1614611208576040517f08c379a000000000000000000000000000000000000000000000000000000000815260206004820152602c60248201527f46756e6374696f6e206d7573742062652063616c6c6564207468726f7567682060448201527f6163746976652070726f7879000000000000000000000000000000000000000060648201526084016108dd565b61121182611f8a565b61121d82826001611f92565b5050565b60003073ffffffffffffffffffffffffffffffffffffffff7f000000000000000000000000000000000000000000000000000000000000000016146112e8576040517f08c379a000000000000000000000000000000000000000000000000000000000815260206004820152603860248201527f555550535570677261646561626c653a206d757374206e6f742062652063616c60448201527f6c6564207468726f7567682064656c656761746563616c6c000000000000000060648201526084016108dd565b507f360894a13ba1a3210667c828492db98dca3e2076cc3735a920a3ca505d382bbc90565b73ffffffffffffffffffffffffffffffffffffffff811661138a576040517f08c379a000000000000000000000000000000000000000000000000000000000815260206004820152601760248201527f4d75737420626520612076616c6964206164647265737300000000000000000060448201526064016108dd565b610868816121f6565b600054610100900460ff16158080156113b35750600054600160ff909116105b806113cd5750303b1580156113cd575060005460ff166001145b611459576040517f08c379a000000000000000000000000000000000000000000000000000000000815260206004820152602e60248201527f496e697469616c697a61626c653a20636f6e747261637420697320616c72656160448201527f647920696e697469616c697a656400000000000000000000000000000000000060648201526084016108dd565b600080547fffffffffffffffffffffffffffffffffffffffffffffffffffffffffffffff0016600117905580156114b757600080547fffffffffffffffffffffffffffffffffffffffffffffffffffffffffffff00ff166101001790555b6114bf6124b4565b6114ca848484612554565b801561152d57600080547fffffffffffffffffffffffffffffffffffffffffffffffffffffffffffff00ff169055604051600181527f7f26b83ff96e1f2b6a682f133852f6798a09c465da95921460cefb38474024989060200160405180910390a15b50505050565b606080600060ce80548060200260200160405190810160405280929190818152602001828054801561159b57602002820191906000526020600020905b815473ffffffffffffffffffffffffffffffffffffffff168152600190910190602001808311611570575b50508351939450505081151590506116145760408051600080825260208201818152828401909352909190611609565b6115f66040518060800160405280600081526020016000815260200160008152602001600081525090565b8152602001906001900390816115cb5790505b509350935050509091565b60008167ffffffffffffffff81111561162f5761162f61380a565b60405190808252806020026020018201604052801561168b57816020015b6116786040518060800160405280600081526020016000815260200160008152602001600081525090565b81526020019060019003908161164d5790505b50905060005b828110156117545760cd60008583815181106116af576116af613b05565b602002602001015173ffffffffffffffffffffffffffffffffffffffff1673ffffffffffffffffffffffffffffffffffffffff16815260200190815260200160002060405180608001604052908160008201548152602001600182015481526020016002820154815260200160038201548152505082828151811061173657611736613b05565b6020026020010181905250808061174c90613b63565b915050611691565b50919491935090915050565b611768611c7c565b611028600061263d565b61177a611c7c565b610868816126b4565b60006107ea826127a0565b6117b96040518060800160405280600081526020016000815260200160008152602001600081525090565b5073ffffffffffffffffffffffffffffffffffffffff16600090815260cd6020908152604091829020825160808101845281548152600182015492810192909252600281015492820192909252600390910154606082015290565b6000811161187e576040517f08c379a000000000000000000000000000000000000000000000000000000000815260206004820152601960248201527f4d757374206265206120706f736974697665206e756d6265720000000000000060448201526064016108dd565b33600090815260cd6020908152604091829020825160808101845281548152600182015492810192909252600281015492820192909252600390910154606082015260cb546118d6836118d084611d9a565b90612936565b1015611964576040517f08c379a000000000000000000000000000000000000000000000000000000000815260206004820152602a60248201527f546f74616c207374616b652069732062656c6f7720746865206d696e696d756d60448201527f207468726573686f6c640000000000000000000000000000000000000000000060648201526084016108dd565b8051611a1457506040805160808101825260008082526020808301828152838501838152606085018481523380865260cd90945295842085518155915160018084019190915590516002830155945160039091015560ce805494850181559091527fd36cd1c74ef8d7326d8021b776c18fb5a5724b7f7bc93c2f42e43e10ef27d12a90920180547fffffffffffffffffffffffff0000000000000000000000000000000000000000169092179091555b611a1f3330846129af565b33600090815260cd60205260409020611a3890836129d4565b60405182815233907f0a7bb2e28cc4698aac06db79cf9163bfcc20719286cf59fa7d492ceda1b8edc2906020015b60405180910390a25050565b61121d3383836129e0565b600080611a89836127a0565b6004811115611a9a57611a9a613a25565b141592915050565b611aaa611c7c565b73ffffffffffffffffffffffffffffffffffffffff8116611b4d576040517f08c379a000000000000000000000000000000000000000000000000000000000815260206004820152602660248201527f4f776e61626c653a206e6577206f776e657220697320746865207a65726f206160448201527f646472657373000000000000000000000000000000000000000000000000000060648201526084016108dd565b6108688161263d565b611b5e611c7c565b61086881612d93565b60ce8181548110611b7757600080fd5b60009182526020909120015473ffffffffffffffffffffffffffffffffffffffff16905081565b611bfc6040518060a00160405280600073ffffffffffffffffffffffffffffffffffffffff168152602001600073ffffffffffffffffffffffffffffffffffffffff1681526020016000815260200160008152602001600081525090565b5073ffffffffffffffffffffffffffffffffffffffff908116600090815260cf6020908152604091829020825160a0810184528154851681526001820154909416918401919091526002810154918301919091526003810154606083015260040154608082015290565b60006107ea611c7483612e62565b835190611daa565b60335473ffffffffffffffffffffffffffffffffffffffff163314611028576040517f08c379a000000000000000000000000000000000000000000000000000000000815260206004820181905260248201527f4f776e61626c653a2063616c6c6572206973206e6f7420746865206f776e657260448201526064016108dd565b60008111611d67576040517f08c379a000000000000000000000000000000000000000000000000000000000815260206004820152601960248201527f4d757374206265206120706f736974697665206e756d6265720000000000000060448201526064016108dd565b60cb81905560405181907f4ae07ff10245d5c3330b9a15e8c6b8644ea81b656ff7d5428edda75e77d061cd90600090a250565b604081015181516000916107ea91905b6000611dec83836040518060400160405280601e81526020017f536166654d6174683a207375627472616374696f6e206f766572666c6f770000815250612e7f565b9392505050565b6000816060015160001480611e0b5750816060015143105b15611e1857506000919050565b506040015190565b73ffffffffffffffffffffffffffffffffffffffff8116600090815260cd60205260408120611e4e90612ed3565b905060008111611ee0576040517f08c379a000000000000000000000000000000000000000000000000000000000815260206004820152602c60248201527f5374616b6520686173206e6f20617661696c61626c6520746f6b656e7320666f60448201527f72207769746864726177616c000000000000000000000000000000000000000060648201526084016108dd565b611eea82826121d2565b8173ffffffffffffffffffffffffffffffffffffffff167f8108595eb6bad3acefa9da467d90cc2217686d5c5ac85460f8b7849c840645fc82604051611a6691815260200190565b6002830154819015611f5e57611f5b611f4f856003015443612f2e565b85600201548486612f48565b90505b6002840154611f6d9084612936565b6002850155611f7c4382612936565b846003018190555050505050565b610868611c7c565b7f4910fdfa16fed3260ed0e7147f7cc6da11a60208b5b9406d12a635614ffd91435460ff1615611fca57611fc583612f7f565b505050565b8273ffffffffffffffffffffffffffffffffffffffff166352d1902d6040518163ffffffff1660e01b815260040160206040518083038186803b15801561201057600080fd5b505afa92505050801561205e575060408051601f3d9081017fffffffffffffffffffffffffffffffffffffffffffffffffffffffffffffffe016820190925261205b91810190613b9c565b60015b6120ea576040517f08c379a000000000000000000000000000000000000000000000000000000000815260206004820152602e60248201527f45524331393637557067726164653a206e657720696d706c656d656e7461746960448201527f6f6e206973206e6f74205555505300000000000000000000000000000000000060648201526084016108dd565b7f360894a13ba1a3210667c828492db98dca3e2076cc3735a920a3ca505d382bbc8114612199576040517f08c379a000000000000000000000000000000000000000000000000000000000815260206004820152602960248201527f45524331393637557067726164653a20756e737570706f727465642070726f7860448201527f6961626c6555554944000000000000000000000000000000000000000000000060648201526084016108dd565b50611fc5838383613089565b60018201546121b49082611daa565b82600101819055505050565b81546121cc9082611daa565b90915550565b60c95461121d9073ffffffffffffffffffffffffffffffffffffffff1683836130ae565b73ffffffffffffffffffffffffffffffffffffffff808216600090815260cf60205260409020600181015490911633146122b2576040517f08c379a000000000000000000000000000000000000000000000000000000000815260206004820152602b60248201527f4f6e6c792074686520616c6c6f6361746f722063616e20636c6f73652074686560448201527f20616c6c6f636174696f6e00000000000000000000000000000000000000000060648201526084016108dd565b60006122bd836127a0565b905060048160048111156122d3576122d3613a25565b14612360576040517f08c379a000000000000000000000000000000000000000000000000000000000815260206004820152602160248201527f416c6c6f636174696f6e20686173206e6f20636f6d706c65746564207374617460448201527f650000000000000000000000000000000000000000000000000000000000000060648201526084016108dd565b4360048301819055600383015460009161237991612f2e565b90506000811161240a576040517f08c379a0000000000000000000000000000000000000000000000000000000008152602060048201526024808201527f416c6c6f636174696f6e2063616e6e6f7420626520636c6f73656420736f206560448201527f61726c790000000000000000000000000000000000000000000000000000000060648201526084016108dd565b6002830154600184015473ffffffffffffffffffffffffffffffffffffffff16600090815260cd6020526040902061244290826121a5565b600060028501556001840154600485015460405173ffffffffffffffffffffffffffffffffffffffff8089169316917f9ec6f3fe8a57fd60609439a97d851e335d635eeb931fca0f26d5fc217936b3c6916124a591868252602082015260400190565b60405180910390a35050505050565b600054610100900460ff1661254b576040517f08c379a000000000000000000000000000000000000000000000000000000000815260206004820152602b60248201527f496e697469616c697a61626c653a20636f6e7472616374206973206e6f74206960448201527f6e697469616c697a696e6700000000000000000000000000000000000000000060648201526084016108dd565b6110283361263d565b600054610100900460ff166125eb576040517f08c379a000000000000000000000000000000000000000000000000000000000815260206004820152602b60248201527f496e697469616c697a61626c653a20636f6e7472616374206973206e6f74206960448201527f6e697469616c697a696e6700000000000000000000000000000000000000000060648201526084016108dd565b60c980547fffffffffffffffffffffffff00000000000000000000000000000000000000001673ffffffffffffffffffffffffffffffffffffffff851617905561263482611cfd565b611fc581612d93565b6033805473ffffffffffffffffffffffffffffffffffffffff8381167fffffffffffffffffffffffff0000000000000000000000000000000000000000831681179093556040519116919082907f8be0079c531659141344cd1fd0a4f28419497f9722a3daafe3b4186f6b6457e090600090a35050565b73ffffffffffffffffffffffffffffffffffffffff8116612731576040517f08c379a000000000000000000000000000000000000000000000000000000000815260206004820152601760248201527f4d75737420626520612076616c6964206164647265737300000000000000000060448201526064016108dd565b60ca80547fffffffffffffffffffffffff00000000000000000000000000000000000000001673ffffffffffffffffffffffffffffffffffffffff83169081179091556040517f173d73afad648e625c4a53878536f7a2debed1f51a04f21d728bce3cf534fcc190600090a250565b73ffffffffffffffffffffffffffffffffffffffff808216600090815260cf60205260408120600181015491929091166127dd5750600092915050565b600083905060008173ffffffffffffffffffffffffffffffffffffffff1663200d2ed26040518163ffffffff1660e01b815260040160206040518083038186803b15801561282a57600080fd5b505afa15801561283e573d6000803e3d6000fd5b505050506040513d601f19601f820116820180604052508101906128629190613bb5565b9050826003015460001415801561287d575060008360020154115b801561289a5750600181600581111561289857612898613a25565b145b156128aa57506001949350505050565b60048301541580156128cd575060008160058111156128cb576128cb613a25565b145b156128dd57506002949350505050565b600483015415801561291b575060048160058111156128fe576128fe613a25565b148061291b5750600581600581111561291957612919613a25565b145b1561292b57506004949350505050565b506003949350505050565b6000806129438385613bd6565b905083811015611dec576040517f08c379a000000000000000000000000000000000000000000000000000000000815260206004820152601b60248201527f536166654d6174683a206164646974696f6e206f766572666c6f77000000000060448201526064016108dd565b60c954611fc59073ffffffffffffffffffffffffffffffffffffffff16848484613182565b81546121cc9082612936565b73ffffffffffffffffffffffffffffffffffffffff8216612a5d576040517f08c379a000000000000000000000000000000000000000000000000000000000815260206004820152601760248201527f4d75737420626520612076616c6964206164647265737300000000000000000060448201526064016108dd565b80612ad860cd60003373ffffffffffffffffffffffffffffffffffffffff1673ffffffffffffffffffffffffffffffffffffffff168152602001908152602001600020604051806080016040529081600082015481526020016001820154815260200160028201548152602001600382015481525050611c66565b1015612b66576040517f08c379a000000000000000000000000000000000000000000000000000000000815260206004820152602a60248201527f496e73756666696369656e7420616d6f756e74206f6620746f6b656e7320696e60448201527f20746865207374616b650000000000000000000000000000000000000000000060648201526084016108dd565b60008111612bd0576040517f08c379a000000000000000000000000000000000000000000000000000000000815260206004820152601960248201527f4d757374206265206120706f736974697665206e756d6265720000000000000060448201526064016108dd565b6000612bdb836127a0565b6004811115612bec57612bec613a25565b14612c53576040517f08c379a000000000000000000000000000000000000000000000000000000000815260206004820152601960248201527f416c6c6f636174696f6e20616c7265616479206578697374730000000000000060448201526064016108dd565b6040805160a08101825273ffffffffffffffffffffffffffffffffffffffff8085168083528682166020808501828152858701888152436060880190815260006080890181815296815260cf855289812089518154908a167fffffffffffffffffffffffff0000000000000000000000000000000000000000918216178255945160018201805491909a1695169490941790975590516002830181905590516003830155935160049091015590835260cd90529290209091612d1591906131e0565b8273ffffffffffffffffffffffffffffffffffffffff168473ffffffffffffffffffffffffffffffffffffffff167fe994fee7ff4d4c7994071d0b9ed626d9b41e4ed5c6126806241b1906a774a2a083604001518460600151604051612d85929190918252602082015260400190565b60405180910390a350505050565b60008163ffffffff1611612e03576040517f08c379a000000000000000000000000000000000000000000000000000000000815260206004820152601960248201527f4d757374206265206120706f736974697665206e756d6265720000000000000060448201526064016108dd565b60cc80547fffffffffffffffffffffffffffffffffffffffffffffffffffffffff000000001663ffffffff83169081179091556040517f4cabd6339016cba9857f365bca7bc3c7e1976823b85052fd7281d313f52c8ae890600090a250565b60006107ea8260400151836020015161293690919063ffffffff16565b60008184841115612ebd576040517f08c379a00000000000000000000000000000000000000000000000000000000081526004016108dd9190613c1a565b506000612eca8486613c6b565b95945050505050565b600080612f1283604051806080016040529081600082015481526020016001820154815260200160028201548152602001600382015481525050611df3565b905080156107ea57612f2483826131ef565b6107ea83826121c0565b6000818311612f3e576000611dec565b611dec8383611daa565b6000612f74612f578584612936565b612f6e612f648686613214565b6118d08989613214565b906132c9565b90505b949350505050565b73ffffffffffffffffffffffffffffffffffffffff81163b613023576040517f08c379a000000000000000000000000000000000000000000000000000000000815260206004820152602d60248201527f455243313936373a206e657720696d706c656d656e746174696f6e206973206e60448201527f6f74206120636f6e74726163740000000000000000000000000000000000000060648201526084016108dd565b7f360894a13ba1a3210667c828492db98dca3e2076cc3735a920a3ca505d382bbc80547fffffffffffffffffffffffff00000000000000000000000000000000000000001673ffffffffffffffffffffffffffffffffffffffff92909216919091179055565b6130928361330b565b60008251118061309f5750805b15611fc55761152d8383613358565b60405173ffffffffffffffffffffffffffffffffffffffff8316602482015260448101829052611fc59084907fa9059cbb00000000000000000000000000000000000000000000000000000000906064015b604080517fffffffffffffffffffffffffffffffffffffffffffffffffffffffffffffffe08184030181529190526020810180517bffffffffffffffffffffffffffffffffffffffffffffffffffffffff167fffffffff000000000000000000000000000000000000000000000000000000009093169290921790915261337d565b60405173ffffffffffffffffffffffffffffffffffffffff8085166024830152831660448201526064810182905261152d9085907f23b872dd0000000000000000000000000000000000000000000000000000000090608401613100565b60018201546121b49082612936565b60028201546131fe9082611daa565b6002830181905561121d57600060038301555050565b600082613223575060006107ea565b600061322f8385613c82565b90508261323c8583613cbf565b14611dec576040517f08c379a000000000000000000000000000000000000000000000000000000000815260206004820152602160248201527f536166654d6174683a206d756c7469706c69636174696f6e206f766572666c6f60448201527f770000000000000000000000000000000000000000000000000000000000000060648201526084016108dd565b6000611dec83836040518060400160405280601a81526020017f536166654d6174683a206469766973696f6e206279207a65726f00000000000081525061348c565b61331481612f7f565b60405173ffffffffffffffffffffffffffffffffffffffff8216907fbc7cd75a20ee27fd9adebab32041f755214dbc6bffa90cc0225b39da2e5c2d3b90600090a250565b6060611dec8383604051806060016040528060278152602001613d39602791396134d4565b60006133df826040518060400160405280602081526020017f5361666545524332303a206c6f772d6c6576656c2063616c6c206661696c65648152508573ffffffffffffffffffffffffffffffffffffffff166135599092919063ffffffff16565b90508051600014806134005750808060200190518101906134009190613cfa565b611fc5576040517f08c379a000000000000000000000000000000000000000000000000000000000815260206004820152602a60248201527f5361666545524332303a204552433230206f7065726174696f6e20646964206e60448201527f6f7420737563636565640000000000000000000000000000000000000000000060648201526084016108dd565b600081836134c7576040517f08c379a00000000000000000000000000000000000000000000000000000000081526004016108dd9190613c1a565b506000612eca8486613cbf565b60606000808573ffffffffffffffffffffffffffffffffffffffff16856040516134fe9190613d1c565b600060405180830381855af49150503d8060008114613539576040519150601f19603f3d011682016040523d82523d6000602084013e61353e565b606091505b509150915061354f86838387613568565b9695505050505050565b6060612f778484600085613605565b606083156135fb5782516135f45773ffffffffffffffffffffffffffffffffffffffff85163b6135f4576040517f08c379a000000000000000000000000000000000000000000000000000000000815260206004820152601d60248201527f416464726573733a2063616c6c20746f206e6f6e2d636f6e747261637400000060448201526064016108dd565b5081612f77565b612f77838361371e565b606082471015613697576040517f08c379a000000000000000000000000000000000000000000000000000000000815260206004820152602660248201527f416464726573733a20696e73756666696369656e742062616c616e636520666f60448201527f722063616c6c000000000000000000000000000000000000000000000000000060648201526084016108dd565b6000808673ffffffffffffffffffffffffffffffffffffffff1685876040516136c09190613d1c565b60006040518083038185875af1925050503d80600081146136fd576040519150601f19603f3d011682016040523d82523d6000602084013e613702565b606091505b509150915061371387838387613568565b979650505050505050565b81511561372e5781518083602001fd5b806040517f08c379a00000000000000000000000000000000000000000000000000000000081526004016108dd9190613c1a565b803573ffffffffffffffffffffffffffffffffffffffff8116811461378657600080fd5b919050565b60006020828403121561379d57600080fd5b611dec82613762565b6000602082840312156137b857600080fd5b5035919050565b600080600080608085870312156137d557600080fd5b6137de85613762565b93506137ec60208601613762565b92506137fa60408601613762565b9396929550929360600135925050565b7f4e487b7100000000000000000000000000000000000000000000000000000000600052604160045260246000fd5b6000806040838503121561384c57600080fd5b61385583613762565b9150602083013567ffffffffffffffff8082111561387257600080fd5b818501915085601f83011261388657600080fd5b8135818111156138985761389861380a565b604051601f82017fffffffffffffffffffffffffffffffffffffffffffffffffffffffffffffffe0908116603f011681019083821181831017156138de576138de61380a565b816040528281528860208487010111156138f757600080fd5b8260208601602083013760006020848301015280955050505050509250929050565b803563ffffffff8116811461378657600080fd5b60008060006060848603121561394257600080fd5b61394b84613762565b92506020840135915061396060408501613919565b90509250925092565b604080825283519082018190526000906020906060840190828701845b828110156139b857815173ffffffffffffffffffffffffffffffffffffffff1684529284019290840190600101613986565b5050508381038285015284518082528583019183019060005b81811015613a1857613a05838551805182526020810151602083015260408101516040830152606081015160608301525050565b92840192608092909201916001016139d1565b5090979650505050505050565b7f4e487b7100000000000000000000000000000000000000000000000000000000600052602160045260246000fd5b6020810160058310613a8f577f4e487b7100000000000000000000000000000000000000000000000000000000600052602160045260246000fd5b91905290565b81518152602080830151908201526040808301519082015260608083015190820152608081016107ea565b60008060408385031215613ad357600080fd5b613adc83613762565b946020939093013593505050565b600060208284031215613afc57600080fd5b611dec82613919565b7f4e487b7100000000000000000000000000000000000000000000000000000000600052603260045260246000fd5b7f4e487b7100000000000000000000000000000000000000000000000000000000600052601160045260246000fd5b60007fffffffffffffffffffffffffffffffffffffffffffffffffffffffffffffffff821415613b9557613b95613b34565b5060010190565b600060208284031215613bae57600080fd5b5051919050565b600060208284031215613bc757600080fd5b815160068110611dec57600080fd5b60008219821115613be957613be9613b34565b500190565b60005b83811015613c09578181015183820152602001613bf1565b8381111561152d5750506000910152565b6020815260008251806020840152613c39816040850160208701613bee565b601f017fffffffffffffffffffffffffffffffffffffffffffffffffffffffffffffffe0169190910160400192915050565b600082821015613c7d57613c7d613b34565b500390565b6000817fffffffffffffffffffffffffffffffffffffffffffffffffffffffffffffffff0483118215151615613cba57613cba613b34565b500290565b600082613cf5577f4e487b7100000000000000000000000000000000000000000000000000000000600052601260045260246000fd5b500490565b600060208284031215613d0c57600080fd5b81518015158114611dec57600080fd5b60008251613d2e818460208701613bee565b919091019291505056fe416464726573733a206c6f772d6c6576656c2064656c65676174652063616c6c206661696c6564a264697066735822122076c2e16131571abc27dc190c5d5c83d83c0464e2406c450d47713ec611b4c15764736f6c63430008090033",
  "linkReferences": {},
  "deployedLinkReferences": {}
}