{
  "_format": "hh-sol-artifact-1",
  "contractName": "HMToken",
  "sourceName": "contracts/HMToken.sol",
  "abi": [
    {
      "inputs": [
        {
          "internalType": "uint256",
          "name": "_totalSupply",
          "type": "uint256"
        },
        {
          "internalType": "string",
          "name": "_name",
          "type": "string"
        },
        {
          "internalType": "uint8",
          "name": "_decimals",
          "type": "uint8"
        },
        {
          "internalType": "string",
          "name": "_symbol",
          "type": "string"
        }
      ],
      "stateMutability": "nonpayable",
      "type": "constructor"
    },
    {
      "anonymous": false,
      "inputs": [
        {
          "indexed": true,
          "internalType": "address",
          "name": "_owner",
          "type": "address"
        },
        {
          "indexed": true,
          "internalType": "address",
          "name": "_spender",
          "type": "address"
        },
        {
          "indexed": false,
          "internalType": "uint256",
          "name": "_value",
          "type": "uint256"
        }
      ],
      "name": "Approval",
      "type": "event"
    },
    {
      "anonymous": false,
      "inputs": [
        {
          "indexed": true,
          "internalType": "uint256",
          "name": "_txId",
          "type": "uint256"
        },
        {
          "indexed": false,
          "internalType": "uint256",
          "name": "_bulkCount",
          "type": "uint256"
        }
      ],
      "name": "BulkApproval",
      "type": "event"
    },
    {
      "anonymous": false,
      "inputs": [
        {
          "indexed": true,
          "internalType": "uint256",
          "name": "_txId",
          "type": "uint256"
        },
        {
          "indexed": false,
          "internalType": "uint256",
          "name": "_bulkCount",
          "type": "uint256"
        }
      ],
      "name": "BulkTransfer",
      "type": "event"
    },
    {
      "anonymous": false,
      "inputs": [
        {
          "indexed": true,
          "internalType": "address",
          "name": "previousOwner",
          "type": "address"
        },
        {
          "indexed": true,
          "internalType": "address",
          "name": "newOwner",
          "type": "address"
        }
      ],
      "name": "OwnershipTransferred",
      "type": "event"
    },
    {
      "anonymous": false,
      "inputs": [
        {
          "indexed": true,
          "internalType": "address",
          "name": "_from",
          "type": "address"
        },
        {
          "indexed": true,
          "internalType": "address",
          "name": "_to",
          "type": "address"
        },
        {
          "indexed": false,
          "internalType": "uint256",
          "name": "_value",
          "type": "uint256"
        }
      ],
      "name": "Transfer",
      "type": "event"
    },
    {
      "inputs": [
        {
          "internalType": "address",
          "name": "_owner",
          "type": "address"
        },
        {
          "internalType": "address",
          "name": "_spender",
          "type": "address"
        }
      ],
      "name": "allowance",
      "outputs": [
        {
          "internalType": "uint256",
          "name": "remaining",
          "type": "uint256"
        }
      ],
      "stateMutability": "view",
      "type": "function"
    },
    {
      "inputs": [
        {
          "internalType": "address",
          "name": "_spender",
          "type": "address"
        },
        {
          "internalType": "uint256",
          "name": "_value",
          "type": "uint256"
        }
      ],
      "name": "approve",
      "outputs": [
        {
          "internalType": "bool",
          "name": "success",
          "type": "bool"
        }
      ],
      "stateMutability": "nonpayable",
      "type": "function"
    },
    {
      "inputs": [
        {
          "internalType": "address",
          "name": "_owner",
          "type": "address"
        }
      ],
      "name": "balanceOf",
      "outputs": [
        {
          "internalType": "uint256",
          "name": "balance",
          "type": "uint256"
        }
      ],
      "stateMutability": "view",
      "type": "function"
    },
    {
      "inputs": [],
      "name": "decimals",
      "outputs": [
        {
          "internalType": "uint8",
          "name": "",
          "type": "uint8"
        }
      ],
      "stateMutability": "view",
      "type": "function"
    },
    {
      "inputs": [
        {
          "internalType": "address",
          "name": "_spender",
          "type": "address"
        },
        {
          "internalType": "uint256",
          "name": "_delta",
          "type": "uint256"
        }
      ],
      "name": "decreaseApproval",
      "outputs": [
        {
          "internalType": "bool",
          "name": "success",
          "type": "bool"
        }
      ],
      "stateMutability": "nonpayable",
      "type": "function"
    },
    {
      "inputs": [
        {
          "internalType": "address",
          "name": "_spender",
          "type": "address"
        },
        {
          "internalType": "uint256",
          "name": "_delta",
          "type": "uint256"
        }
      ],
      "name": "increaseApproval",
      "outputs": [
        {
          "internalType": "bool",
          "name": "success",
          "type": "bool"
        }
      ],
      "stateMutability": "nonpayable",
      "type": "function"
    },
    {
      "inputs": [
        {
          "internalType": "address[]",
          "name": "_spenders",
          "type": "address[]"
        },
        {
          "internalType": "uint256[]",
          "name": "_values",
          "type": "uint256[]"
        },
        {
          "internalType": "uint256",
          "name": "_txId",
          "type": "uint256"
        }
      ],
      "name": "increaseApprovalBulk",
      "outputs": [
        {
          "internalType": "uint256",
          "name": "_bulkCount",
          "type": "uint256"
        }
      ],
      "stateMutability": "nonpayable",
      "type": "function"
    },
    {
      "inputs": [],
      "name": "name",
      "outputs": [
        {
          "internalType": "string",
          "name": "",
          "type": "string"
        }
      ],
      "stateMutability": "view",
      "type": "function"
    },
    {
      "inputs": [],
      "name": "owner",
      "outputs": [
        {
          "internalType": "address",
          "name": "",
          "type": "address"
        }
      ],
      "stateMutability": "view",
      "type": "function"
    },
    {
      "inputs": [],
      "name": "renounceOwnership",
      "outputs": [],
      "stateMutability": "nonpayable",
      "type": "function"
    },
    {
      "inputs": [],
      "name": "symbol",
      "outputs": [
        {
          "internalType": "string",
          "name": "",
          "type": "string"
        }
      ],
      "stateMutability": "view",
      "type": "function"
    },
    {
      "inputs": [],
      "name": "totalSupply",
      "outputs": [
        {
          "internalType": "uint256",
          "name": "",
          "type": "uint256"
        }
      ],
      "stateMutability": "view",
      "type": "function"
    },
    {
      "inputs": [
        {
          "internalType": "address",
          "name": "_to",
          "type": "address"
        },
        {
          "internalType": "uint256",
          "name": "_value",
          "type": "uint256"
        }
      ],
      "name": "transfer",
      "outputs": [
        {
          "internalType": "bool",
          "name": "success",
          "type": "bool"
        }
      ],
      "stateMutability": "nonpayable",
      "type": "function"
    },
    {
      "inputs": [
        {
          "internalType": "address[]",
          "name": "_tos",
          "type": "address[]"
        },
        {
          "internalType": "uint256[]",
          "name": "_values",
          "type": "uint256[]"
        },
        {
          "internalType": "uint256",
          "name": "_txId",
          "type": "uint256"
        }
      ],
      "name": "transferBulk",
      "outputs": [
        {
          "internalType": "uint256",
          "name": "_bulkCount",
          "type": "uint256"
        }
      ],
      "stateMutability": "nonpayable",
      "type": "function"
    },
    {
      "inputs": [
        {
          "internalType": "address",
          "name": "_spender",
          "type": "address"
        },
        {
          "internalType": "address",
          "name": "_to",
          "type": "address"
        },
        {
          "internalType": "uint256",
          "name": "_value",
          "type": "uint256"
        }
      ],
      "name": "transferFrom",
      "outputs": [
        {
          "internalType": "bool",
          "name": "success",
          "type": "bool"
        }
      ],
      "stateMutability": "nonpayable",
      "type": "function"
    },
    {
      "inputs": [
        {
          "internalType": "address",
          "name": "newOwner",
          "type": "address"
        }
      ],
      "name": "transferOwnership",
      "outputs": [],
      "stateMutability": "nonpayable",
      "type": "function"
    }
  ],
  "bytecode": "0x60806040523480156200001157600080fd5b5060405162001dbd38038062001dbd83398101604081905262000034916200027a565b6200003f33620000b7565b6200004f60ff8316600a6200041e565b6200005b908562000433565b60015582516200007390600490602086019062000107565b506005805460ff191660ff841617905580516200009890600690602084019062000107565b5050600154336000908152600260205260409020555062000492915050565b600080546001600160a01b038381166001600160a01b0319831681178455604051919092169283917f8be0079c531659141344cd1fd0a4f28419497f9722a3daafe3b4186f6b6457e09190a35050565b828054620001159062000455565b90600052602060002090601f01602090048101928262000139576000855562000184565b82601f106200015457805160ff191683800117855562000184565b8280016001018555821562000184579182015b828111156200018457825182559160200191906001019062000167565b506200019292915062000196565b5090565b5b8082111562000192576000815560010162000197565b634e487b7160e01b600052604160045260246000fd5b600082601f830112620001d557600080fd5b81516001600160401b0380821115620001f257620001f2620001ad565b604051601f8301601f19908116603f011681019082821181831017156200021d576200021d620001ad565b816040528381526020925086838588010111156200023a57600080fd5b600091505b838210156200025e57858201830151818301840152908201906200023f565b83821115620002705760008385830101525b9695505050505050565b600080600080608085870312156200029157600080fd5b845160208601519094506001600160401b0380821115620002b157600080fd5b620002bf88838901620001c3565b94506040870151915060ff82168214620002d857600080fd5b606087015191935080821115620002ee57600080fd5b50620002fd87828801620001c3565b91505092959194509250565b634e487b7160e01b600052601160045260246000fd5b600181815b808511156200036057816000190482111562000344576200034462000309565b808516156200035257918102915b93841c939080029062000324565b509250929050565b600082620003795750600162000418565b81620003885750600062000418565b8160018114620003a15760028114620003ac57620003cc565b600191505062000418565b60ff841115620003c057620003c062000309565b50506001821b62000418565b5060208310610133831016604e8410600b8410161715620003f1575081810a62000418565b620003fd83836200031f565b806000190482111562000414576200041462000309565b0290505b92915050565b60006200042c838362000368565b9392505050565b600081600019048311821515161562000450576200045062000309565b500290565b600181811c908216806200046a57607f821691505b602082108114156200048c57634e487b7160e01b600052602260045260246000fd5b50919050565b61191b80620004a26000396000f3fe608060405234801561001057600080fd5b50600436106101005760003560e01c8063715018a611610097578063d73dd62311610066578063d73dd62314610238578063dd62ed3e1461024b578063e816d8d814610291578063f2fde38b146102a457600080fd5b8063715018a6146101eb5780638da5cb5b146101f557806395d89b411461021d578063a9059cbb1461022557600080fd5b80632776c640116100d35780632776c64014610170578063313ce5671461018357806366188463146101a257806370a08231146101b557600080fd5b806306fdde0314610105578063095ea7b31461012357806318160ddd1461014657806323b872dd1461015d575b600080fd5b61010d6102b7565b60405161011a91906114a5565b60405180910390f35b610136610131366004611541565b610345565b604051901515815260200161011a565b61014f60015481565b60405190815260200161011a565b61013661016b36600461156b565b610462565b61014f61017e3660046116b4565b610816565b6005546101909060ff1681565b60405160ff909116815260200161011a565b6101366101b0366004611541565b610a88565b61014f6101c336600461177d565b73ffffffffffffffffffffffffffffffffffffffff1660009081526002602052604090205490565b6101f3610c7b565b005b60005460405173ffffffffffffffffffffffffffffffffffffffff909116815260200161011a565b61010d610c8f565b610136610233366004611541565b610c9c565b610136610246366004611541565b610d11565b61014f610259366004611798565b73ffffffffffffffffffffffffffffffffffffffff918216600090815260036020908152604080832093909416825291909152205490565b61014f61029f3660046116b4565b610ec8565b6101f36102b236600461177d565b611112565b600480546102c4906117cb565b80601f01602080910402602001604051908101604052809291908181526020018280546102f0906117cb565b801561033d5780601f106103125761010080835404028352916020019161033d565b820191906000526020600020905b81548152906001019060200180831161032057829003601f168201915b505050505081565b600073ffffffffffffffffffffffffffffffffffffffff83166103ef576040517f08c379a000000000000000000000000000000000000000000000000000000000815260206004820152602960248201527f546f6b656e207370656e64657220697320616e20756e696e697469616c697a6560448201527f642061646472657373000000000000000000000000000000000000000000000060648201526084015b60405180910390fd5b33600081815260036020908152604080832073ffffffffffffffffffffffffffffffffffffffff881680855290835292819020869055518581529192917f8c5be1e5ebec7d5bd14f71427d1e84f3dd0314c0f7b2291e5b200ac8c7c3b92591015b60405180910390a35060015b92915050565b600073ffffffffffffffffffffffffffffffffffffffff8416610507576040517f08c379a000000000000000000000000000000000000000000000000000000000815260206004820152602a60248201527f43616e27742073656e6420746f6b656e7320746f20756e696e697469616c697a60448201527f656420616464726573730000000000000000000000000000000000000000000060648201526084016103e6565b73ffffffffffffffffffffffffffffffffffffffff84166000908152600360209081526040808320338452909152902054828110156105a2576040517f08c379a000000000000000000000000000000000000000000000000000000000815260206004820152601960248201527f5370656e64657220616c6c6f77616e636520746f6f206c6f770000000000000060448201526064016103e6565b73ffffffffffffffffffffffffffffffffffffffff8416610645576040517f08c379a000000000000000000000000000000000000000000000000000000000815260206004820152602a60248201527f43616e27742073656e6420746f6b656e7320746f20756e696e697469616c697a60448201527f656420616464726573730000000000000000000000000000000000000000000060648201526084016103e6565b604080518082018252601781527f5370656e6465722062616c616e636520746f6f206c6f7700000000000000000060208083019190915273ffffffffffffffffffffffffffffffffffffffff88166000908152600290915291909120546106ad9185906111c9565b73ffffffffffffffffffffffffffffffffffffffff80871660009081526002602052604080822093909355908616815220546106e9908461121d565b73ffffffffffffffffffffffffffffffffffffffff85166000908152600260205260409020557fffffffffffffffffffffffffffffffffffffffffffffffffffffffffffffffff81146107a45773ffffffffffffffffffffffffffffffffffffffff8516600090815260036020908152604080832033845290915290205461077290849061184e565b73ffffffffffffffffffffffffffffffffffffffff861660009081526003602090815260408083203384529091529020555b8373ffffffffffffffffffffffffffffffffffffffff168573ffffffffffffffffffffffffffffffffffffffff167fddf252ad1be2c89b69c2b068fc378daa952ba7f163c4a11628f55a4df523b3ef8560405161080391815260200190565b60405180910390a3506001949350505050565b600082518451146108a9576040517f08c379a000000000000000000000000000000000000000000000000000000000815260206004820152602960248201527f416d6f756e74206f66207370656e6465727320616e642076616c75657320646f60448201527f6e2774206d61746368000000000000000000000000000000000000000000000060648201526084016103e6565b8351606411610914576040517f08c379a000000000000000000000000000000000000000000000000000000000815260206004820152601160248201527f546f6f206d616e79207370656e6465727300000000000000000000000000000060448201526064016103e6565b6000805b855181101561095f5761094d85828151811061093657610936611865565b60200260200101518361121d90919063ffffffff16565b915061095881611894565b9050610918565b506b033b2e3c9fd0803ce800000081106109d5576040517f08c379a000000000000000000000000000000000000000000000000000000000815260206004820152601360248201527f42756c6b2076616c756520746f6f20686967680000000000000000000000000060448201526064016103e6565b6000805b8651811015610a4457610a1e8782815181106109f7576109f7611865565b6020026020010151878381518110610a1157610a11611865565b6020026020010151610d11565b91508115610a3457610a3184600161121d565b93505b610a3d81611894565b90506109d9565b50837fca78741c6b48402cfa7be577db6559c46abb0f8ba9ce1468cf71297349370d9c84604051610a7791815260200190565b60405180910390a250509392505050565b600073ffffffffffffffffffffffffffffffffffffffff8316610b2d576040517f08c379a000000000000000000000000000000000000000000000000000000000815260206004820152602960248201527f546f6b656e207370656e64657220697320616e20756e696e697469616c697a6560448201527f642061646472657373000000000000000000000000000000000000000000000060648201526084016103e6565b33600090815260036020908152604080832073ffffffffffffffffffffffffffffffffffffffff8716845290915290205480831115610b9c5733600090815260036020908152604080832073ffffffffffffffffffffffffffffffffffffffff88168452909152812055610c0a565b33600090815260036020908152604080832073ffffffffffffffffffffffffffffffffffffffff88168452909152902054610bd890849061184e565b33600090815260036020908152604080832073ffffffffffffffffffffffffffffffffffffffff891684529091529020555b33600081815260036020908152604080832073ffffffffffffffffffffffffffffffffffffffff8916808552908352928190205490519081529192917f8c5be1e5ebec7d5bd14f71427d1e84f3dd0314c0f7b2291e5b200ac8c7c3b925910160405180910390a35060019392505050565b610c8361129d565b610c8d600061131e565b565b600680546102c4906117cb565b6000610ca88383611393565b90508061045c576040517f08c379a000000000000000000000000000000000000000000000000000000000815260206004820152601760248201527f5472616e73666572206469646e2774207375636365656400000000000000000060448201526064016103e6565b600073ffffffffffffffffffffffffffffffffffffffff8316610db6576040517f08c379a000000000000000000000000000000000000000000000000000000000815260206004820152602960248201527f546f6b656e207370656e64657220697320616e20756e696e697469616c697a6560448201527f642061646472657373000000000000000000000000000000000000000000000060648201526084016103e6565b33600090815260036020908152604080832073ffffffffffffffffffffffffffffffffffffffff8716845290915290205480610df284826118cd565b1080610e2657507fffffffffffffffffffffffffffffffffffffffffffffffffffffffffffffffff610e2484836118cd565b145b15610e8c57610e5660017fffffffffffffffffffffffffffffffffffffffffffffffffffffffffffffffff61184e565b33600090815260036020908152604080832073ffffffffffffffffffffffffffffffffffffffff89168452909152902055610c0a565b33600090815260036020908152604080832073ffffffffffffffffffffffffffffffffffffffff88168452909152902054610bd89084906118cd565b60008251845114610f5b576040517f08c379a000000000000000000000000000000000000000000000000000000000815260206004820152602b60248201527f416d6f756e74206f6620726563697069656e747320616e642076616c7565732060448201527f646f6e2774206d6174636800000000000000000000000000000000000000000060648201526084016103e6565b8351606411610fc6576040517f08c379a000000000000000000000000000000000000000000000000000000000815260206004820152601360248201527f546f6f206d616e7920726563697069656e74730000000000000000000000000060448201526064016103e6565b6000805b8551811015610ffa57610fe885828151811061093657610936611865565b9150610ff381611894565b9050610fca565b506b033b2e3c9fd0803ce80000008110611070576040517f08c379a000000000000000000000000000000000000000000000000000000000815260206004820152601360248201527f42756c6b2076616c756520746f6f20686967680000000000000000000000000060448201526064016103e6565b6000805b86518110156110df576110b987828151811061109257611092611865565b60200260200101518783815181106110ac576110ac611865565b6020026020010151611393565b915081156110cf576110cc84600161121d565b93505b6110d881611894565b9050611074565b50837f8ed71c3a6fb899bfe96968ade5a4119b380c0d642a775106eb80aa795450777e84604051610a7791815260200190565b61111a61129d565b73ffffffffffffffffffffffffffffffffffffffff81166111bd576040517f08c379a000000000000000000000000000000000000000000000000000000000815260206004820152602660248201527f4f776e61626c653a206e6577206f776e657220697320746865207a65726f206160448201527f646472657373000000000000000000000000000000000000000000000000000060648201526084016103e6565b6111c68161131e565b50565b60008184841115611207576040517f08c379a00000000000000000000000000000000000000000000000000000000081526004016103e691906114a5565b506000611214848661184e565b95945050505050565b60008061122a83856118cd565b905083811015611296576040517f08c379a000000000000000000000000000000000000000000000000000000000815260206004820152601b60248201527f536166654d6174683a206164646974696f6e206f766572666c6f77000000000060448201526064016103e6565b9392505050565b60005473ffffffffffffffffffffffffffffffffffffffff163314610c8d576040517f08c379a000000000000000000000000000000000000000000000000000000000815260206004820181905260248201527f4f776e61626c653a2063616c6c6572206973206e6f7420746865206f776e657260448201526064016103e6565b6000805473ffffffffffffffffffffffffffffffffffffffff8381167fffffffffffffffffffffffff0000000000000000000000000000000000000000831681178455604051919092169283917f8be0079c531659141344cd1fd0a4f28419497f9722a3daafe3b4186f6b6457e09190a35050565b600073ffffffffffffffffffffffffffffffffffffffff831615806113cd575073ffffffffffffffffffffffffffffffffffffffff831630145b806113e657503360009081526002602052604090205482115b156113f35750600061045c565b3360009081526002602052604090205461140e90839061184e565b336000908152600260205260408082209290925573ffffffffffffffffffffffffffffffffffffffff851681522054611447908361121d565b73ffffffffffffffffffffffffffffffffffffffff84166000818152600260205260409081902092909255905133907fddf252ad1be2c89b69c2b068fc378daa952ba7f163c4a11628f55a4df523b3ef906104509086815260200190565b600060208083528351808285015260005b818110156114d2578581018301518582016040015282016114b6565b818111156114e4576000604083870101525b50601f017fffffffffffffffffffffffffffffffffffffffffffffffffffffffffffffffe016929092016040019392505050565b803573ffffffffffffffffffffffffffffffffffffffff8116811461153c57600080fd5b919050565b6000806040838503121561155457600080fd5b61155d83611518565b946020939093013593505050565b60008060006060848603121561158057600080fd5b61158984611518565b925061159760208501611518565b9150604084013590509250925092565b7f4e487b7100000000000000000000000000000000000000000000000000000000600052604160045260246000fd5b604051601f82017fffffffffffffffffffffffffffffffffffffffffffffffffffffffffffffffe016810167ffffffffffffffff8111828210171561161d5761161d6115a7565b604052919050565b600067ffffffffffffffff82111561163f5761163f6115a7565b5060051b60200190565b600082601f83011261165a57600080fd5b8135602061166f61166a83611625565b6115d6565b82815260059290921b8401810191818101908684111561168e57600080fd5b8286015b848110156116a95780358352918301918301611692565b509695505050505050565b6000806000606084860312156116c957600080fd5b833567ffffffffffffffff808211156116e157600080fd5b818601915086601f8301126116f557600080fd5b8135602061170561166a83611625565b82815260059290921b8401810191818101908a84111561172457600080fd5b948201945b838610156117495761173a86611518565b82529482019490820190611729565b9750508701359250508082111561175f57600080fd5b5061176c86828701611649565b925050604084013590509250925092565b60006020828403121561178f57600080fd5b61129682611518565b600080604083850312156117ab57600080fd5b6117b483611518565b91506117c260208401611518565b90509250929050565b600181811c908216806117df57607f821691505b60208210811415611819577f4e487b7100000000000000000000000000000000000000000000000000000000600052602260045260246000fd5b50919050565b7f4e487b7100000000000000000000000000000000000000000000000000000000600052601160045260246000fd5b6000828210156118605761186061181f565b500390565b7f4e487b7100000000000000000000000000000000000000000000000000000000600052603260045260246000fd5b60007fffffffffffffffffffffffffffffffffffffffffffffffffffffffffffffffff8214156118c6576118c661181f565b5060010190565b600082198211156118e0576118e061181f565b50019056fea2646970667358221220ef1d28d4e7c66729f89ebd5caecb878bd1882cfbe1b3a0b7048d58c7b30a5ebd64736f6c63430008090033",
  "linkReferences": {},
  "deployedLinkReferences": {}
}