{
  "_format": "hh-sol-artifact-1",
  "contractName": "EscrowFactory",
  "sourceName": "contracts/EscrowFactory.sol",
  "abi": [
    {
      "inputs": [],
      "stateMutability": "nonpayable",
      "type": "constructor"
    },
    {
      "anonymous": false,
      "inputs": [
        {
          "indexed": false,
          "internalType": "address",
          "name": "previousAdmin",
          "type": "address"
        },
        {
          "indexed": false,
          "internalType": "address",
          "name": "newAdmin",
          "type": "address"
        }
      ],
      "name": "AdminChanged",
      "type": "event"
    },
    {
      "anonymous": false,
      "inputs": [
        {
          "indexed": true,
          "internalType": "address",
          "name": "beacon",
          "type": "address"
        }
      ],
      "name": "BeaconUpgraded",
      "type": "event"
    },
    {
      "anonymous": false,
      "inputs": [
        {
          "indexed": false,
          "internalType": "uint8",
          "name": "version",
          "type": "uint8"
        }
      ],
      "name": "Initialized",
      "type": "event"
    },
    {
      "anonymous": false,
      "inputs": [
        {
          "indexed": false,
          "internalType": "address",
          "name": "token",
          "type": "address"
        },
        {
          "indexed": false,
          "internalType": "address",
          "name": "escrow",
          "type": "address"
        }
      ],
      "name": "Launched",
      "type": "event"
    },
    {
      "anonymous": false,
      "inputs": [
        {
          "indexed": false,
          "internalType": "address",
          "name": "token",
          "type": "address"
        },
        {
          "indexed": false,
          "internalType": "address",
          "name": "escrow",
          "type": "address"
        },
        {
          "indexed": false,
          "internalType": "string",
          "name": "jobRequesterId",
          "type": "string"
        }
      ],
      "name": "LaunchedV2",
      "type": "event"
    },
    {
      "anonymous": false,
      "inputs": [
        {
          "indexed": true,
          "internalType": "address",
          "name": "previousOwner",
          "type": "address"
        },
        {
          "indexed": true,
          "internalType": "address",
          "name": "newOwner",
          "type": "address"
        }
      ],
      "name": "OwnershipTransferred",
      "type": "event"
    },
    {
      "anonymous": false,
      "inputs": [
        {
          "indexed": true,
          "internalType": "address",
          "name": "implementation",
          "type": "address"
        }
      ],
      "name": "Upgraded",
      "type": "event"
    },
    {
      "inputs": [],
      "name": "counter",
      "outputs": [
        {
          "internalType": "uint256",
          "name": "",
          "type": "uint256"
        }
      ],
      "stateMutability": "view",
      "type": "function"
    },
    {
      "inputs": [
        {
          "internalType": "address",
          "name": "token",
          "type": "address"
        },
        {
          "internalType": "address[]",
          "name": "trustedHandlers",
          "type": "address[]"
        },
        {
          "internalType": "string",
          "name": "jobRequesterId",
          "type": "string"
        }
      ],
      "name": "createEscrow",
      "outputs": [
        {
          "internalType": "address",
          "name": "",
          "type": "address"
        }
      ],
      "stateMutability": "nonpayable",
      "type": "function"
    },
    {
      "inputs": [
        {
          "internalType": "address",
          "name": "",
          "type": "address"
        }
      ],
      "name": "escrowCounters",
      "outputs": [
        {
          "internalType": "uint256",
          "name": "",
          "type": "uint256"
        }
      ],
      "stateMutability": "view",
      "type": "function"
    },
    {
      "inputs": [
        {
          "internalType": "address",
          "name": "_address",
          "type": "address"
        }
      ],
      "name": "hasEscrow",
      "outputs": [
        {
          "internalType": "bool",
          "name": "",
          "type": "bool"
        }
      ],
      "stateMutability": "view",
      "type": "function"
    },
    {
      "inputs": [
        {
          "internalType": "address",
          "name": "_staking",
          "type": "address"
        }
      ],
      "name": "initialize",
      "outputs": [],
      "stateMutability": "payable",
      "type": "function"
    },
    {
      "inputs": [],
      "name": "lastEscrow",
      "outputs": [
        {
          "internalType": "address",
          "name": "",
          "type": "address"
        }
      ],
      "stateMutability": "view",
      "type": "function"
    },
    {
      "inputs": [],
      "name": "owner",
      "outputs": [
        {
          "internalType": "address",
          "name": "",
          "type": "address"
        }
      ],
      "stateMutability": "view",
      "type": "function"
    },
    {
      "inputs": [],
      "name": "proxiableUUID",
      "outputs": [
        {
          "internalType": "bytes32",
          "name": "",
          "type": "bytes32"
        }
      ],
      "stateMutability": "view",
      "type": "function"
    },
    {
      "inputs": [],
      "name": "renounceOwnership",
      "outputs": [],
      "stateMutability": "nonpayable",
      "type": "function"
    },
    {
      "inputs": [],
      "name": "staking",
      "outputs": [
        {
          "internalType": "address",
          "name": "",
          "type": "address"
        }
      ],
      "stateMutability": "view",
      "type": "function"
    },
    {
      "inputs": [
        {
          "internalType": "address",
          "name": "newOwner",
          "type": "address"
        }
      ],
      "name": "transferOwnership",
      "outputs": [],
      "stateMutability": "nonpayable",
      "type": "function"
    },
    {
      "inputs": [
        {
          "internalType": "address",
          "name": "newImplementation",
          "type": "address"
        }
      ],
      "name": "upgradeTo",
      "outputs": [],
      "stateMutability": "nonpayable",
      "type": "function"
    },
    {
      "inputs": [
        {
          "internalType": "address",
          "name": "newImplementation",
          "type": "address"
        },
        {
          "internalType": "bytes",
          "name": "data",
          "type": "bytes"
        }
      ],
      "name": "upgradeToAndCall",
      "outputs": [],
      "stateMutability": "payable",
      "type": "function"
    }
  ],
  "bytecode": "0x60a06040523060805234801561001457600080fd5b5061001d610022565b6100e1565b600054610100900460ff161561008e5760405162461bcd60e51b815260206004820152602760248201527f496e697469616c697a61626c653a20636f6e747261637420697320696e697469604482015266616c697a696e6760c81b606482015260840160405180910390fd5b60005460ff908116146100df576000805460ff191660ff9081179091556040519081527f7f26b83ff96e1f2b6a682f133852f6798a09c465da95921460cefb38474024989060200160405180910390a15b565b6080516153236200011960003960008181610336015281816103ec01528181610549015281816105fb015261074b01526153236000f3fe608060405260043610620000e35760003560e01c806361bc221a11620000895780638da5cb5b11620000605780638da5cb5b1462000284578063979530e614620002b1578063c4d66de814620002e2578063f2fde38b14620002f957600080fd5b806361bc221a146200022f578063715018a614620002475780637e598797146200025f57600080fd5b80634f1ef28611620000be5780634f1ef286146200019757806352d1902d14620001ae57806358d276f714620001d557600080fd5b80633659cfe614620000e85780633cc3e58d146200010f5780634cf088d91462000168575b600080fd5b348015620000f557600080fd5b506200010d620001073660046200158c565b6200031e565b005b3480156200011c57600080fd5b5060cb546200013e9073ffffffffffffffffffffffffffffffffffffffff1681565b60405173ffffffffffffffffffffffffffffffffffffffff90911681526020015b60405180910390f35b3480156200017557600080fd5b5060cc546200013e9073ffffffffffffffffffffffffffffffffffffffff1681565b6200010d620001a8366004620016a7565b62000531565b348015620001bb57600080fd5b50620001c662000731565b6040519081526020016200015f565b348015620001e257600080fd5b506200021e620001f43660046200158c565b73ffffffffffffffffffffffffffffffffffffffff16600090815260ca6020526040902054151590565b60405190151581526020016200015f565b3480156200023c57600080fd5b50620001c660c95481565b3480156200025457600080fd5b506200010d6200081f565b3480156200026c57600080fd5b506200013e6200027e36600462001733565b62000837565b3480156200029157600080fd5b5060335473ffffffffffffffffffffffffffffffffffffffff166200013e565b348015620002be57600080fd5b50620001c6620002d03660046200158c565b60ca6020526000908152604090205481565b6200010d620002f33660046200158c565b62000a8d565b3480156200030657600080fd5b506200010d620003183660046200158c565b62000c33565b3073ffffffffffffffffffffffffffffffffffffffff7f0000000000000000000000000000000000000000000000000000000000000000161415620003ea576040517f08c379a000000000000000000000000000000000000000000000000000000000815260206004820152602c60248201527f46756e6374696f6e206d7573742062652063616c6c6564207468726f7567682060448201527f64656c656761746563616c6c000000000000000000000000000000000000000060648201526084015b60405180910390fd5b7f000000000000000000000000000000000000000000000000000000000000000073ffffffffffffffffffffffffffffffffffffffff16620004607f360894a13ba1a3210667c828492db98dca3e2076cc3735a920a3ca505d382bbc5473ffffffffffffffffffffffffffffffffffffffff1690565b73ffffffffffffffffffffffffffffffffffffffff161462000505576040517f08c379a000000000000000000000000000000000000000000000000000000000815260206004820152602c60248201527f46756e6374696f6e206d7573742062652063616c6c6564207468726f7567682060448201527f6163746976652070726f787900000000000000000000000000000000000000006064820152608401620003e1565b620005108162000ced565b604080516000808252602082019092526200052e9183919062000cf7565b50565b3073ffffffffffffffffffffffffffffffffffffffff7f0000000000000000000000000000000000000000000000000000000000000000161415620005f9576040517f08c379a000000000000000000000000000000000000000000000000000000000815260206004820152602c60248201527f46756e6374696f6e206d7573742062652063616c6c6564207468726f7567682060448201527f64656c656761746563616c6c00000000000000000000000000000000000000006064820152608401620003e1565b7f000000000000000000000000000000000000000000000000000000000000000073ffffffffffffffffffffffffffffffffffffffff166200066f7f360894a13ba1a3210667c828492db98dca3e2076cc3735a920a3ca505d382bbc5473ffffffffffffffffffffffffffffffffffffffff1690565b73ffffffffffffffffffffffffffffffffffffffff161462000714576040517f08c379a000000000000000000000000000000000000000000000000000000000815260206004820152602c60248201527f46756e6374696f6e206d7573742062652063616c6c6564207468726f7567682060448201527f6163746976652070726f787900000000000000000000000000000000000000006064820152608401620003e1565b6200071f8262000ced565b6200072d8282600162000cf7565b5050565b60003073ffffffffffffffffffffffffffffffffffffffff7f00000000000000000000000000000000000000000000000000000000000000001614620007fa576040517f08c379a000000000000000000000000000000000000000000000000000000000815260206004820152603860248201527f555550535570677261646561626c653a206d757374206e6f742062652063616c60448201527f6c6564207468726f7567682064656c656761746563616c6c00000000000000006064820152608401620003e1565b507f360894a13ba1a3210667c828492db98dca3e2076cc3735a920a3ca505d382bbc90565b6200082962000f17565b62000835600062000f9a565b565b60cc546040517f1af963aa000000000000000000000000000000000000000000000000000000008152336004820152600091829173ffffffffffffffffffffffffffffffffffffffff90911690631af963aa9060240160206040518083038186803b158015620008a657600080fd5b505afa158015620008bb573d6000803e3d6000fd5b505050506040513d601f19601f82011682018060405250810190620008e1919062001826565b905060018115151462000977576040517f08c379a000000000000000000000000000000000000000000000000000000000815260206004820152602e60248201527f4e6565647320746f207374616b6520484d5420746f6b656e7320746f2063726560448201527f61746520616e20657363726f772e0000000000000000000000000000000000006064820152608401620003e1565b60008533336283d600886040516200098f9062001554565b6200099f9594939291906200184a565b604051809103906000f080158015620009bc573d6000803e3d6000fd5b5060c980549192506000620009d183620018cd565b909155505060c95473ffffffffffffffffffffffffffffffffffffffff8216600081815260ca6020526040908190209290925560cb80547fffffffffffffffffffffffff0000000000000000000000000000000000000000168217905590517fde4a6895269de599430e1230956361cbe11b52ad149311a97123c73666c521419162000a62918991908890620019a9565b60405180910390a1505060cb5473ffffffffffffffffffffffffffffffffffffffff16949350505050565b600054610100900460ff161580801562000aae5750600054600160ff909116105b8062000aca5750303b15801562000aca575060005460ff166001145b62000b58576040517f08c379a000000000000000000000000000000000000000000000000000000000815260206004820152602e60248201527f496e697469616c697a61626c653a20636f6e747261637420697320616c72656160448201527f647920696e697469616c697a65640000000000000000000000000000000000006064820152608401620003e1565b600080547fffffffffffffffffffffffffffffffffffffffffffffffffffffffffffffff00166001179055801562000bb757600080547fffffffffffffffffffffffffffffffffffffffffffffffffffffffffffff00ff166101001790555b62000bc162001011565b62000bcc82620010b5565b80156200072d57600080547fffffffffffffffffffffffffffffffffffffffffffffffffffffffffffff00ff169055604051600181527f7f26b83ff96e1f2b6a682f133852f6798a09c465da95921460cefb38474024989060200160405180910390a15050565b62000c3d62000f17565b73ffffffffffffffffffffffffffffffffffffffff811662000ce2576040517f08c379a000000000000000000000000000000000000000000000000000000000815260206004820152602660248201527f4f776e61626c653a206e6577206f776e657220697320746865207a65726f206160448201527f64647265737300000000000000000000000000000000000000000000000000006064820152608401620003e1565b6200052e8162000f9a565b6200052e62000f17565b7f4910fdfa16fed3260ed0e7147f7cc6da11a60208b5b9406d12a635614ffd91435460ff161562000d325762000d2d836200121b565b505050565b8273ffffffffffffffffffffffffffffffffffffffff166352d1902d6040518163ffffffff1660e01b815260040160206040518083038186803b15801562000d7957600080fd5b505afa92505050801562000dca575060408051601f3d9081017fffffffffffffffffffffffffffffffffffffffffffffffffffffffffffffffe016820190925262000dc791810190620019ed565b60015b62000e58576040517f08c379a000000000000000000000000000000000000000000000000000000000815260206004820152602e60248201527f45524331393637557067726164653a206e657720696d706c656d656e7461746960448201527f6f6e206973206e6f7420555550530000000000000000000000000000000000006064820152608401620003e1565b7f360894a13ba1a3210667c828492db98dca3e2076cc3735a920a3ca505d382bbc811462000f09576040517f08c379a000000000000000000000000000000000000000000000000000000000815260206004820152602960248201527f45524331393637557067726164653a20756e737570706f727465642070726f7860448201527f6961626c655555494400000000000000000000000000000000000000000000006064820152608401620003e1565b5062000d2d83838362001327565b60335473ffffffffffffffffffffffffffffffffffffffff16331462000835576040517f08c379a000000000000000000000000000000000000000000000000000000000815260206004820181905260248201527f4f776e61626c653a2063616c6c6572206973206e6f7420746865206f776e65726044820152606401620003e1565b6033805473ffffffffffffffffffffffffffffffffffffffff8381167fffffffffffffffffffffffff0000000000000000000000000000000000000000831681179093556040519116919082907f8be0079c531659141344cd1fd0a4f28419497f9722a3daafe3b4186f6b6457e090600090a35050565b600054610100900460ff16620010aa576040517f08c379a000000000000000000000000000000000000000000000000000000000815260206004820152602b60248201527f496e697469616c697a61626c653a20636f6e7472616374206973206e6f74206960448201527f6e697469616c697a696e670000000000000000000000000000000000000000006064820152608401620003e1565b620008353362000f9a565b600054610100900460ff166200114e576040517f08c379a000000000000000000000000000000000000000000000000000000000815260206004820152602b60248201527f496e697469616c697a61626c653a20636f6e7472616374206973206e6f74206960448201527f6e697469616c697a696e670000000000000000000000000000000000000000006064820152608401620003e1565b60408051808201909152601b81527f457363726f77466163746f72793a205a65726f20416464726573730000000000602082015273ffffffffffffffffffffffffffffffffffffffff8216620011d3576040517f08c379a0000000000000000000000000000000000000000000000000000000008152600401620003e1919062001a07565b5060cc80547fffffffffffffffffffffffff00000000000000000000000000000000000000001673ffffffffffffffffffffffffffffffffffffffff92909216919091179055565b73ffffffffffffffffffffffffffffffffffffffff81163b620012c1576040517f08c379a000000000000000000000000000000000000000000000000000000000815260206004820152602d60248201527f455243313936373a206e657720696d706c656d656e746174696f6e206973206e60448201527f6f74206120636f6e7472616374000000000000000000000000000000000000006064820152608401620003e1565b7f360894a13ba1a3210667c828492db98dca3e2076cc3735a920a3ca505d382bbc80547fffffffffffffffffffffffff00000000000000000000000000000000000000001673ffffffffffffffffffffffffffffffffffffffff92909216919091179055565b620013328362001358565b600082511180620013405750805b1562000d2d57620013528383620013a7565b50505050565b62001363816200121b565b60405173ffffffffffffffffffffffffffffffffffffffff8216907fbc7cd75a20ee27fd9adebab32041f755214dbc6bffa90cc0225b39da2e5c2d3b90600090a250565b6060620013cf8383604051806060016040528060278152602001620052c760279139620013d6565b9392505050565b60606000808573ffffffffffffffffffffffffffffffffffffffff168560405162001402919062001a1c565b600060405180830381855af49150503d80600081146200143f576040519150601f19603f3d011682016040523d82523d6000602084013e62001444565b606091505b5091509150620014578683838762001461565b9695505050505050565b60608315620014f9578251620014f15773ffffffffffffffffffffffffffffffffffffffff85163b620014f1576040517f08c379a000000000000000000000000000000000000000000000000000000000815260206004820152601d60248201527f416464726573733a2063616c6c20746f206e6f6e2d636f6e74726163740000006044820152606401620003e1565b508162001505565b6200150583836200150d565b949350505050565b8151156200151e5781518083602001fd5b806040517f08c379a0000000000000000000000000000000000000000000000000000000008152600401620003e1919062001a07565b61388c8062001a3b83390190565b803573ffffffffffffffffffffffffffffffffffffffff811681146200158757600080fd5b919050565b6000602082840312156200159f57600080fd5b620013cf8262001562565b7f4e487b7100000000000000000000000000000000000000000000000000000000600052604160045260246000fd5b604051601f82017fffffffffffffffffffffffffffffffffffffffffffffffffffffffffffffffe016810167ffffffffffffffff81118282101715620016235762001623620015aa565b604052919050565b600067ffffffffffffffff831115620016485762001648620015aa565b6200167b60207fffffffffffffffffffffffffffffffffffffffffffffffffffffffffffffffe0601f86011601620015d9565b90508281528383830111156200169057600080fd5b828260208301376000602084830101529392505050565b60008060408385031215620016bb57600080fd5b620016c68362001562565b9150602083013567ffffffffffffffff811115620016e357600080fd5b8301601f81018513620016f557600080fd5b62001706858235602084016200162b565b9150509250929050565b600082601f8301126200172257600080fd5b620013cf838335602085016200162b565b6000806000606084860312156200174957600080fd5b620017548462001562565b925060208085013567ffffffffffffffff808211156200177357600080fd5b818701915087601f8301126200178857600080fd5b8135818111156200179d576200179d620015aa565b8060051b620017ae858201620015d9565b918252838101850191858101908b841115620017c957600080fd5b948601945b83861015620017f257620017e28662001562565b82529486019490860190620017ce565b975050505060408701359250808311156200180c57600080fd5b50506200181c8682870162001710565b9150509250925092565b6000602082840312156200183957600080fd5b81518015158114620013cf57600080fd5b600060a0820173ffffffffffffffffffffffffffffffffffffffff8089168452602081891681860152818816604086015286606086015260a0608086015282865180855260c087019150828801945060005b81811015620018bc5785518516835294830194918301916001016200189c565b50909b9a5050505050505050505050565b60007fffffffffffffffffffffffffffffffffffffffffffffffffffffffffffffffff82141562001927577f4e487b7100000000000000000000000000000000000000000000000000000000600052601160045260246000fd5b5060010190565b60005b838110156200194b57818101518382015260200162001931565b83811115620013525750506000910152565b60008151808452620019778160208601602086016200192e565b601f017fffffffffffffffffffffffffffffffffffffffffffffffffffffffffffffffe0169290920160200192915050565b600073ffffffffffffffffffffffffffffffffffffffff808616835280851660208401525060606040830152620019e460608301846200195d565b95945050505050565b60006020828403121562001a0057600080fd5b5051919050565b602081526000620013cf60208301846200195d565b6000825162001a308184602087016200192e565b919091019291505056fe60806040523480156200001157600080fd5b506040516200388c3803806200388c8339810160408190526200003491620003d7565b600160005560408051808201909152601481527f457363726f773a207a65726f206164647265737300000000000000000000000060208201526001600160a01b038616620000a05760405162461bcd60e51b8152600401620000979190620004f7565b60405180910390fd5b5060408051808201909152601481527f457363726f773a207a65726f206164647265737300000000000000000000000060208201526001600160a01b038416620000ff5760405162461bcd60e51b8152600401620000979190620004f7565b50600780546001600160a01b0319166001600160a01b0387161790556001805460ff191690556200013d8242620001be602090811b62001ebe17901c565b600d55600480546001600160a01b038087166001600160a01b0319928316811790935560058054918716918316821790556006805490921633179091556000918252600e6020526040808320805460ff199081166001908117909255928452922080549091169091179055620001b38162000228565b5050505050620005b4565b600080620001cd838562000565565b905083811015620002215760405162461bcd60e51b815260206004820152601b60248201527f536166654d6174683a206164646974696f6e206f766572666c6f770000000000604482015260640162000097565b9392505050565b60005b8151811015620003925760006001600160a01b031682828151811062000255576200025562000580565b60200260200101516001600160a01b031614156040518060400160405280601481526020017f457363726f773a207a65726f206164647265737300000000000000000000000081525090620002bf5760405162461bcd60e51b8152600401620000979190620004f7565b506001600e6000848481518110620002db57620002db62000580565b60200260200101516001600160a01b03166001600160a01b0316815260200190815260200160002060006101000a81548160ff0219169083151502179055507fad3769ac0c1a91ee9dcf369f6d2989f91572b6f876933bbc82ab85f6b969a07a82828151811062000350576200035062000580565b60200260200101516040516200037591906001600160a01b0391909116815260200190565b60405180910390a180620003898162000596565b9150506200022b565b5050565b6001600160a01b0381168114620003ac57600080fd5b50565b8051620003bc8162000396565b919050565b634e487b7160e01b600052604160045260246000fd5b600080600080600060a08688031215620003f057600080fd5b8551620003fd8162000396565b80955050602080870151620004128162000396565b6040880151909550620004258162000396565b6060880151608089015191955093506001600160401b03808211156200044a57600080fd5b818901915089601f8301126200045f57600080fd5b815181811115620004745762000474620003c1565b8060051b604051601f19603f830116810181811085821117156200049c576200049c620003c1565b60405291825284820192508381018501918c831115620004bb57600080fd5b938501935b82851015620004e457620004d485620003af565b84529385019392850192620004c0565b8096505050505050509295509295909350565b600060208083528351808285015260005b81811015620005265785810183015185820160400152820162000508565b8181111562000539576000604083870101525b50601f01601f1916929092016040019392505050565b634e487b7160e01b600052601160045260246000fd5b600082198211156200057b576200057b6200054f565b500190565b634e487b7160e01b600052603260045260246000fd5b6000600019821415620005ad57620005ad6200054f565b5060010190565b6132c880620005c46000396000f3fe608060405234801561001057600080fd5b50600436106101ae5760003560e01c8063992d454d116100ee578063bdd1daaa11610097578063f17171e911610071578063f17171e9146103d2578063f56679cf146103f5578063fad844c114610408578063fc0c546a1461042d57600080fd5b8063bdd1daaa14610375578063c479bbf814610395578063ea8a1af0146103ba57600080fd5b8063a05220ad116100c8578063a05220ad1461033a578063b63d1a001461035a578063ba5fed341461036d57600080fd5b8063992d454d146102ff5780639c48b1021461031f5780639eb262f31461032757600080fd5b8063337f3f321161015b578063522e117711610135578063522e11771461029e578063697e4b87146102a657806378c62420146102b95780639753e432146102df57600080fd5b8063337f3f321461028457806335a063b41461028c57806343aba9c21461029657600080fd5b806312065fe01161018c57806312065fe01461021d57806316eebd1e14610225578063200d2ed21461026a57600080fd5b80630ae9dfad146101b35780630f46c9aa146101f15780630fb5a6b414610206575b600080fd5b6006546101da90760100000000000000000000000000000000000000000000900460ff1681565b60405160ff90911681526020015b60405180910390f35b6101f961044d565b6040516101e89190612a0c565b61020f600d5481565b6040519081526020016101e8565b61020f6104db565b6004546102459073ffffffffffffffffffffffffffffffffffffffff1681565b60405173ffffffffffffffffffffffffffffffffffffffff90911681526020016101e8565b6001546102779060ff1681565b6040516101e89190612a4e565b6101f9610622565b61029461062f565b005b6101f96107e1565b6102946107ee565b6102946102b4366004612b9b565b6109cf565b6006546101da907501000000000000000000000000000000000000000000900460ff1681565b6002546102459073ffffffffffffffffffffffffffffffffffffffff1681565b6005546102459073ffffffffffffffffffffffffffffffffffffffff1681565b6101f9610cbc565b610294610335366004612cbe565b610cc9565b6003546102459073ffffffffffffffffffffffffffffffffffffffff1681565b610294610368366004612cf3565b610d4e565b6101f961168d565b6006546102459073ffffffffffffffffffffffffffffffffffffffff1681565b6006546101da9074010000000000000000000000000000000000000000900460ff1681565b6103c261169a565b60405190151581526020016101e8565b6103c26103e0366004612dfc565b600e6020526000908152604090205460ff1681565b610294610403366004612e28565b611919565b60015461024590610100900473ffffffffffffffffffffffffffffffffffffffff1681565b6007546102459073ffffffffffffffffffffffffffffffffffffffff1681565b600c805461045a90612ef0565b80601f016020809104026020016040519081016040528092919081815260200182805461048690612ef0565b80156104d35780601f106104a8576101008083540402835291602001916104d3565b820191906000526020600020905b8154815290600101906020018083116104b657829003601f168201915b505050505081565b6007546040513060248201526000918291829173ffffffffffffffffffffffffffffffffffffffff16907f70a08231b98ef4ca268c9cc3f6b4590e4bfec28280db06bb5d45e689f2a360be90604401604080517fffffffffffffffffffffffffffffffffffffffffffffffffffffffffffffffe08184030181529181526020820180517bffffffffffffffffffffffffffffffffffffffffffffffffffffffff167fffffffff000000000000000000000000000000000000000000000000000000009094169390931790925290516105b39190612f44565b600060405180830381855afa9150503d80600081146105ee576040519150601f19603f3d011682016040523d82523d6000602084013e6105f3565b606091505b5091509150811561061957808060200190518101906106129190612f60565b9250505090565b60009250505090565b6009805461045a90612ef0565b336000908152600e602052604090205460ff166106ad576040517f08c379a000000000000000000000000000000000000000000000000000000000815260206004820152601b60248201527f416464726573732063616c6c696e67206e6f742074727573746564000000000060448201526064015b60405180910390fd5b600460015460ff1660058111156106c6576106c6612a1f565b141561072e576040517f08c379a000000000000000000000000000000000000000000000000000000000815260206004820152601f60248201527f457363726f7720696e20436f6d706c657465207374617475732073746174650060448201526064016106a4565b600360015460ff16600581111561074757610747612a1f565b14156107af576040517f08c379a000000000000000000000000000000000000000000000000000000000815260206004820152601b60248201527f457363726f7720696e205061696420737461747573207374617465000000000060448201526064016106a4565b6107b76104db565b156107c6576107c461169a565b505b60055473ffffffffffffffffffffffffffffffffffffffff16ff5b600b805461045a90612ef0565b42600d5411610859576040517f08c379a000000000000000000000000000000000000000000000000000000000815260206004820152601060248201527f436f6e747261637420657870697265640000000000000000000000000000000060448201526064016106a4565b336000908152600e602052604090205460ff16806108935750600154610100900473ffffffffffffffffffffffffffffffffffffffff1633145b6108f9576040517f08c379a000000000000000000000000000000000000000000000000000000000815260206004820152601b60248201527f416464726573732063616c6c696e67206e6f742074727573746564000000000060448201526064016106a4565b600360015460ff16600581111561091257610912612a1f565b14610979576040517f08c379a000000000000000000000000000000000000000000000000000000000815260206004820152601860248201527f457363726f77206e6f7420696e2050616964207374617465000000000000000060448201526064016106a4565b600180547fffffffffffffffffffffffffffffffffffffffffffffffffffffffffffffff001660041790556040517fe06452d00b2b58f14a1fa6d499ea982ff93ea827ae700ea9ba03f4daddc94bc190600090a1565b336000908152600e602052604090205460ff1680610a04575060025473ffffffffffffffffffffffffffffffffffffffff1633145b610a6a576040517f08c379a000000000000000000000000000000000000000000000000000000000815260206004820152601b60248201527f416464726573732063616c6c696e67206e6f742074727573746564000000000060448201526064016106a4565b42600d5411610ad5576040517f08c379a000000000000000000000000000000000000000000000000000000000815260206004820152601060248201527f436f6e747261637420657870697265640000000000000000000000000000000060448201526064016106a4565b6001805460ff166005811115610aed57610aed612a1f565b1480610b0f5750600260015460ff166005811115610b0d57610b0d612a1f565b145b610b9b576040517f08c379a000000000000000000000000000000000000000000000000000000000815260206004820152602d60248201527f457363726f77206e6f7420696e2050656e64696e67206f72205061727469616c60448201527f207374617475732073746174650000000000000000000000000000000000000060648201526084016106a4565b8151610c03576040517f08c379a000000000000000000000000000000000000000000000000000000000815260206004820152601260248201527f55524c2063616e277420626520656d707479000000000000000000000000000060448201526064016106a4565b8051610c6b576040517f08c379a000000000000000000000000000000000000000000000000000000000815260206004820152601360248201527f486173682063616e277420626520656d7074790000000000000000000000000060448201526064016106a4565b8151610c7e90600a9060208501906128f9565b507fb20e0717219840fd5684a80bec782e8babb56ea224f677561b791a61192605c18282604051610cb0929190612f79565b60405180910390a15050565b6008805461045a90612ef0565b336000908152600e602052604090205460ff16610d42576040517f08c379a000000000000000000000000000000000000000000000000000000000815260206004820152601b60248201527f416464726573732063616c6c696e67206e6f742074727573746564000000000060448201526064016106a4565b610d4b81611f40565b50565b336000908152600e602052604090205460ff1680610d885750600154610100900473ffffffffffffffffffffffffffffffffffffffff1633145b610dee576040517f08c379a000000000000000000000000000000000000000000000000000000000815260206004820152601b60248201527f416464726573732063616c6c696e67206e6f742074727573746564000000000060448201526064016106a4565b610df66104db565b610e5c576040517f08c379a000000000000000000000000000000000000000000000000000000000815260206004820152601b60248201527f546f6b656e20636f6e7472616374206f7574206f662066756e6473000000000060448201526064016106a4565b600060015460ff166005811115610e7557610e75612a1f565b1415610edd576040517f08c379a000000000000000000000000000000000000000000000000000000000815260206004820152601f60248201527f457363726f7720696e204c61756e63686564207374617475732073746174650060448201526064016106a4565b600360015460ff166005811115610ef657610ef6612a1f565b1415610f5e576040517f08c379a000000000000000000000000000000000000000000000000000000000815260206004820152601b60248201527f457363726f7720696e205061696420737461747573207374617465000000000060448201526064016106a4565b42600d5411610fc9576040517f08c379a000000000000000000000000000000000000000000000000000000000815260206004820152601060248201527f436f6e747261637420657870697265640000000000000000000000000000000060448201526064016106a4565b610fd16120f8565b8351855114611062576040517f08c379a000000000000000000000000000000000000000000000000000000000815260206004820152602b60248201527f416d6f756e74206f6620726563697069656e747320616e642076616c7565732060448201527f646f6e2774206d6174636800000000000000000000000000000000000000000060648201526084016106a4565b60008451116110cd576040517f08c379a000000000000000000000000000000000000000000000000000000000815260206004820152601b60248201527f416d6f756e74732073686f756c64206e6f7420626520656d707479000000000060448201526064016106a4565b8451606411611138576040517f08c379a000000000000000000000000000000000000000000000000000000000815260206004820152601360248201527f546f6f206d616e7920726563697069656e74730000000000000000000000000060448201526064016106a4565b600460015460ff16600581111561115157611151612a1f565b141580156111765750600560015460ff16600581111561117357611173612a1f565b14155b6111dc576040517f08c379a000000000000000000000000000000000000000000000000000000000815260206004820152600e60248201527f496e76616c69642073746174757300000000000000000000000000000000000060448201526064016106a4565b60006111e66104db565b90506000805b86518110156112de57600087828151811061120957611209612f9e565b60200260200101511161129e576040517f08c379a000000000000000000000000000000000000000000000000000000000815260206004820152602260248201527f416d6f756e742073686f756c642062652067726561746572207468616e207a6560448201527f726f00000000000000000000000000000000000000000000000000000000000060648201526084016106a4565b6112ca8782815181106112b3576112b3612f9e565b602002602001015183611ebe90919063ffffffff16565b9150806112d681612ffc565b9150506111ec565b506b033b2e3c9fd0803ce80000008110611354576040517f08c379a000000000000000000000000000000000000000000000000000000000815260206004820152601360248201527f42756c6b2076616c756520746f6f20686967680000000000000000000000000060448201526064016106a4565b818111156113be576040517f08c379a000000000000000000000000000000000000000000000000000000000815260206004820152601260248201527f4e6f7420656e6f7567682062616c616e6365000000000000000000000000000060448201526064016106a4565b8451611426576040517f08c379a000000000000000000000000000000000000000000000000000000000815260206004820152601260248201527f55524c2063616e277420626520656d707479000000000000000000000000000060448201526064016106a4565b835161148e576040517f08c379a000000000000000000000000000000000000000000000000000000000815260206004820152601360248201527f486173682063616e277420626520656d7074790000000000000000000000000060448201526064016106a4565b84516114a190600b9060208801906128f9565b5083516114b590600c9060208701906128f9565b506000806000806114c58a61216c565b935093509350935060005b8b518110156115475760008582815181106114ed576114ed612f9e565b60200260200101511115611537576115378c828151811061151057611510612f9e565b602002602001015186838151811061152a5761152a612f9e565b6020026020010151612353565b61154081612ffc565b90506114d0565b5082156115765760015461157690610100900473ffffffffffffffffffffffffffffffffffffffff1684612353565b811561159f5760025461159f9073ffffffffffffffffffffffffffffffffffffffff1683612353565b80156115c8576003546115c89073ffffffffffffffffffffffffffffffffffffffff1682612353565b6115d06104db565b955060008661160c5750600180547fffffffffffffffffffffffffffffffffffffffffffffffffffffffffffffff001660031790556000611639565b50600180547fffffffffffffffffffffffffffffffffffffffffffffffffffffffffffffff001660021781555b877f776950576f5bac7433f5095f1490841528a48d38607deca7d6f270988ec32b8a8d878460405161166d93929190613035565b60405180910390a2505050505050506116866001600055565b5050505050565b600a805461045a90612ef0565b336000908152600e602052604081205460ff16611713576040517f08c379a000000000000000000000000000000000000000000000000000000000815260206004820152601b60248201527f416464726573732063616c6c696e67206e6f742074727573746564000000000060448201526064016106a4565b61171b6104db565b611781576040517f08c379a000000000000000000000000000000000000000000000000000000000815260206004820152601b60248201527f546f6b656e20636f6e7472616374206f7574206f662066756e6473000000000060448201526064016106a4565b600460015460ff16600581111561179a5761179a612a1f565b1415611802576040517f08c379a000000000000000000000000000000000000000000000000000000000815260206004820152601f60248201527f457363726f7720696e20436f6d706c657465207374617475732073746174650060448201526064016106a4565b600360015460ff16600581111561181b5761181b612a1f565b1415611883576040517f08c379a000000000000000000000000000000000000000000000000000000000815260206004820152601b60248201527f457363726f7720696e205061696420737461747573207374617465000000000060448201526064016106a4565b61188b6120f8565b6005546118b59073ffffffffffffffffffffffffffffffffffffffff166118b06104db565b612353565b600180547fffffffffffffffffffffffffffffffffffffffffffffffffffffffffffffff001660051790556040517f63b958841f79ab97cb5456da181454b9932c0e15a3b17f1cbd27e2a8bc61043790600090a15060016119166001600055565b90565b336000908152600e602052604090205460ff16611992576040517f08c379a000000000000000000000000000000000000000000000000000000000815260206004820152601b60248201527f416464726573732063616c6c696e67206e6f742074727573746564000000000060448201526064016106a4565b42600d54116119fd576040517f08c379a000000000000000000000000000000000000000000000000000000000815260206004820152601060248201527f436f6e747261637420657870697265640000000000000000000000000000000060448201526064016106a4565b73ffffffffffffffffffffffffffffffffffffffff8816611aa0576040517f08c379a000000000000000000000000000000000000000000000000000000000815260206004820152602160248201527f496e76616c69642072657075746174696f6e206f7261636c652061646472657360448201527f730000000000000000000000000000000000000000000000000000000000000060648201526084016106a4565b73ffffffffffffffffffffffffffffffffffffffff8716611b1d576040517f08c379a000000000000000000000000000000000000000000000000000000000815260206004820181905260248201527f496e76616c6964207265636f7264696e67206f7261636c65206164647265737360448201526064016106a4565b73ffffffffffffffffffffffffffffffffffffffff8616611b9a576040517f08c379a000000000000000000000000000000000000000000000000000000000815260206004820152601f60248201527f496e76616c69642065786368616e6765206f7261636c6520616464726573730060448201526064016106a4565b60008360ff168560ff168760ff16611bb291906130cd565b611bbc91906130cd565b90506064811115611c29576040517f08c379a000000000000000000000000000000000000000000000000000000000815260206004820152601860248201527f50657263656e74616765206f7574206f6620626f756e6473000000000000000060448201526064016106a4565b600060015460ff166005811115611c4257611c42612a1f565b14611ccf576040517f08c379a000000000000000000000000000000000000000000000000000000000815260206004820152602360248201527f457363726f77206e6f7420696e204c61756e636865642073746174757320737460448201527f617465000000000000000000000000000000000000000000000000000000000060648201526084016106a4565b600180547fffffffffffffffffffffff0000000000000000000000000000000000000000ff1661010073ffffffffffffffffffffffffffffffffffffffff8c81169190910291909117909155600280547fffffffffffffffffffffffff00000000000000000000000000000000000000009081168b84161790915560038054909116918916919091179055600680547fffffffffffffffffffff0000ffffffffffffffffffffffffffffffffffffffff167401000000000000000000000000000000000000000060ff898116919091027fffffffffffffffffffff00ffffffffffffffffffffffffffffffffffffffffff1691909117750100000000000000000000000000000000000000000088831602177fffffffffffffffffff00ffffffffffffffffffffffffffffffffffffffffffff16760100000000000000000000000000000000000000000000918716919091021790558251611e389060089060208601906128f9565b508151611e4c9060099060208501906128f9565b50600180547fffffffffffffffffffffffffffffffffffffffffffffffffffffffffffffff0016811790556040517f8ec464ac0c8e44e17130cd1ffb09967fa6f2c33339289678a59ea0112cfc2aa990611eab906008906009906131bc565b60405180910390a1505050505050505050565b600080611ecb83856130cd565b905083811015611f37576040517f08c379a000000000000000000000000000000000000000000000000000000000815260206004820152601b60248201527f536166654d6174683a206164646974696f6e206f766572666c6f77000000000060448201526064016106a4565b90505b92915050565b60005b81518110156120f457600073ffffffffffffffffffffffffffffffffffffffff16828281518110611f7657611f76612f9e565b602002602001015173ffffffffffffffffffffffffffffffffffffffff1614156040518060400160405280601481526020017f457363726f773a207a65726f206164647265737300000000000000000000000081525090612004576040517f08c379a00000000000000000000000000000000000000000000000000000000081526004016106a49190612a0c565b506001600e600084848151811061201d5761201d612f9e565b602002602001015173ffffffffffffffffffffffffffffffffffffffff1673ffffffffffffffffffffffffffffffffffffffff16815260200190815260200160002060006101000a81548160ff0219169083151502179055507fad3769ac0c1a91ee9dcf369f6d2989f91572b6f876933bbc82ab85f6b969a07a8282815181106120a9576120a9612f9e565b60200260200101516040516120da919073ffffffffffffffffffffffffffffffffffffffff91909116815260200190565b60405180910390a1806120ec81612ffc565b915050611f43565b5050565b60026000541415612165576040517f08c379a000000000000000000000000000000000000000000000000000000000815260206004820152601f60248201527f5265656e7472616e637947756172643a207265656e7472616e742063616c6c0060448201526064016106a4565b6002600055565b6060600080600080855167ffffffffffffffff81111561218e5761218e612a8f565b6040519080825280602002602001820160405280156121b7578160200160208202803683370190505b5090506000806000805b89518110156123435760008a82815181106121de576121de612f9e565b6020026020010151905060008061221b606461221585600660149054906101000a900460ff1660ff1661237790919063ffffffff16565b9061242c565b90506122278782611ebe565b96506122338282611ebe565b915050600061228260646122158f878151811061225257612252612f9e565b60209081029190910101516006547501000000000000000000000000000000000000000000900460ff1690612377565b905061228e8682611ebe565b955061229a8282611ebe565b91505060006122ea60646122158f87815181106122b9576122b9612f9e565b6020908102919091010151600654760100000000000000000000000000000000000000000000900460ff1690612377565b90506122f68582611ebe565b94506123028282611ebe565b91506123109050828261246e565b87848151811061232257612322612f9e565b6020026020010181815250505050808061233b90612ffc565b9150506121c1565b5092989197509550909350915050565b6007546120f49073ffffffffffffffffffffffffffffffffffffffff1683836124b0565b60008261238657506000611f3a565b600061239283856131e1565b90508261239f858361321e565b14611f37576040517f08c379a000000000000000000000000000000000000000000000000000000000815260206004820152602160248201527f536166654d6174683a206d756c7469706c69636174696f6e206f766572666c6f60448201527f770000000000000000000000000000000000000000000000000000000000000060648201526084016106a4565b6000611f3783836040518060400160405280601a81526020017f536166654d6174683a206469766973696f6e206279207a65726f000000000000815250612542565b6000611f3783836040518060400160405280601e81526020017f536166654d6174683a207375627472616374696f6e206f766572666c6f770000815250612593565b6040805173ffffffffffffffffffffffffffffffffffffffff8416602482015260448082018490528251808303909101815260649091019091526020810180517bffffffffffffffffffffffffffffffffffffffffffffffffffffffff167fa9059cbb0000000000000000000000000000000000000000000000000000000017905261253d9084906125de565b505050565b6000818361257d576040517f08c379a00000000000000000000000000000000000000000000000000000000081526004016106a49190612a0c565b50600061258a848661321e565b95945050505050565b600081848411156125d1576040517f08c379a00000000000000000000000000000000000000000000000000000000081526004016106a49190612a0c565b50600061258a8486613259565b6000612640826040518060400160405280602081526020017f5361666545524332303a206c6f772d6c6576656c2063616c6c206661696c65648152508573ffffffffffffffffffffffffffffffffffffffff166126ed9092919063ffffffff16565b90508051600014806126615750808060200190518101906126619190613270565b61253d576040517f08c379a000000000000000000000000000000000000000000000000000000000815260206004820152602a60248201527f5361666545524332303a204552433230206f7065726174696f6e20646964206e60448201527f6f7420737563636565640000000000000000000000000000000000000000000060648201526084016106a4565b60606126fc8484600085612704565b949350505050565b606082471015612796576040517f08c379a000000000000000000000000000000000000000000000000000000000815260206004820152602660248201527f416464726573733a20696e73756666696369656e742062616c616e636520666f60448201527f722063616c6c000000000000000000000000000000000000000000000000000060648201526084016106a4565b6000808673ffffffffffffffffffffffffffffffffffffffff1685876040516127bf9190612f44565b60006040518083038185875af1925050503d80600081146127fc576040519150601f19603f3d011682016040523d82523d6000602084013e612801565b606091505b50915091506128128783838761281d565b979650505050505050565b606083156128b05782516128a95773ffffffffffffffffffffffffffffffffffffffff85163b6128a9576040517f08c379a000000000000000000000000000000000000000000000000000000000815260206004820152601d60248201527f416464726573733a2063616c6c20746f206e6f6e2d636f6e747261637400000060448201526064016106a4565b50816126fc565b6126fc83838151156128c55781518083602001fd5b806040517f08c379a00000000000000000000000000000000000000000000000000000000081526004016106a49190612a0c565b82805461290590612ef0565b90600052602060002090601f016020900481019282612927576000855561296d565b82601f1061294057805160ff191683800117855561296d565b8280016001018555821561296d579182015b8281111561296d578251825591602001919060010190612952565b5061297992915061297d565b5090565b5b80821115612979576000815560010161297e565b60005b838110156129ad578181015183820152602001612995565b838111156129bc576000848401525b50505050565b600081518084526129da816020860160208601612992565b601f017fffffffffffffffffffffffffffffffffffffffffffffffffffffffffffffffe0169290920160200192915050565b602081526000611f3760208301846129c2565b7f4e487b7100000000000000000000000000000000000000000000000000000000600052602160045260246000fd5b6020810160068310612a89577f4e487b7100000000000000000000000000000000000000000000000000000000600052602160045260246000fd5b91905290565b7f4e487b7100000000000000000000000000000000000000000000000000000000600052604160045260246000fd5b604051601f82017fffffffffffffffffffffffffffffffffffffffffffffffffffffffffffffffe016810167ffffffffffffffff81118282101715612b0557612b05612a8f565b604052919050565b600082601f830112612b1e57600080fd5b813567ffffffffffffffff811115612b3857612b38612a8f565b612b6960207fffffffffffffffffffffffffffffffffffffffffffffffffffffffffffffffe0601f84011601612abe565b818152846020838601011115612b7e57600080fd5b816020850160208301376000918101602001919091529392505050565b60008060408385031215612bae57600080fd5b823567ffffffffffffffff80821115612bc657600080fd5b612bd286838701612b0d565b93506020850135915080821115612be857600080fd5b50612bf585828601612b0d565b9150509250929050565b600067ffffffffffffffff821115612c1957612c19612a8f565b5060051b60200190565b803573ffffffffffffffffffffffffffffffffffffffff81168114612c4757600080fd5b919050565b600082601f830112612c5d57600080fd5b81356020612c72612c6d83612bff565b612abe565b82815260059290921b84018101918181019086841115612c9157600080fd5b8286015b84811015612cb357612ca681612c23565b8352918301918301612c95565b509695505050505050565b600060208284031215612cd057600080fd5b813567ffffffffffffffff811115612ce757600080fd5b6126fc84828501612c4c565b600080600080600060a08688031215612d0b57600080fd5b853567ffffffffffffffff80821115612d2357600080fd5b612d2f89838a01612c4c565b9650602091508188013581811115612d4657600080fd5b8801601f81018a13612d5757600080fd5b8035612d65612c6d82612bff565b81815260059190911b8201840190848101908c831115612d8457600080fd5b928501925b82841015612da257833582529285019290850190612d89565b98505050506040880135915080821115612dbb57600080fd5b612dc789838a01612b0d565b94506060880135915080821115612ddd57600080fd5b50612dea88828901612b0d565b95989497509295608001359392505050565b600060208284031215612e0e57600080fd5b611f3782612c23565b803560ff81168114612c4757600080fd5b600080600080600080600080610100898b031215612e4557600080fd5b612e4e89612c23565b9750612e5c60208a01612c23565b9650612e6a60408a01612c23565b9550612e7860608a01612e17565b9450612e8660808a01612e17565b9350612e9460a08a01612e17565b925060c089013567ffffffffffffffff80821115612eb157600080fd5b612ebd8c838d01612b0d565b935060e08b0135915080821115612ed357600080fd5b50612ee08b828c01612b0d565b9150509295985092959890939650565b600181811c90821680612f0457607f821691505b60208210811415612f3e577f4e487b7100000000000000000000000000000000000000000000000000000000600052602260045260246000fd5b50919050565b60008251612f56818460208701612992565b9190910192915050565b600060208284031215612f7257600080fd5b5051919050565b604081526000612f8c60408301856129c2565b828103602084015261258a81856129c2565b7f4e487b7100000000000000000000000000000000000000000000000000000000600052603260045260246000fd5b7f4e487b7100000000000000000000000000000000000000000000000000000000600052601160045260246000fd5b60007fffffffffffffffffffffffffffffffffffffffffffffffffffffffffffffffff82141561302e5761302e612fcd565b5060010190565b606080825284519082018190526000906020906080840190828801845b8281101561308457815173ffffffffffffffffffffffffffffffffffffffff1684529284019290840190600101613052565b5050508381038285015285518082528683019183019060005b818110156130b95783518352928401929184019160010161309d565b5050851515604086015292506126fc915050565b600082198211156130e0576130e0612fcd565b500190565b8054600090600181811c90808316806130ff57607f831692505b602080841082141561313a577f4e487b7100000000000000000000000000000000000000000000000000000000600052602260045260246000fd5b838852602088018280156131555760018114613184576131af565b7fffffffffffffffffffffffffffffffffffffffffffffffffffffffffffffff008716825282820197506131af565b60008981526020902060005b878110156131a957815484820152908601908401613190565b83019850505b5050505050505092915050565b6040815260006131cf60408301856130e5565b828103602084015261258a81856130e5565b6000817fffffffffffffffffffffffffffffffffffffffffffffffffffffffffffffffff048311821515161561321957613219612fcd565b500290565b600082613254577f4e487b7100000000000000000000000000000000000000000000000000000000600052601260045260246000fd5b500490565b60008282101561326b5761326b612fcd565b500390565b60006020828403121561328257600080fd5b81518015158114611f3757600080fdfea26469706673582212209c7a15a3d565a0365349ce3e03636b3ab63c1d1e79f3f1170c9ca297d8f865dd64736f6c63430008090033416464726573733a206c6f772d6c6576656c2064656c65676174652063616c6c206661696c6564a2646970667358221220ab3b0796ab774ae768be11b29f6584cd904939986556462440a145f3f535fc1264736f6c63430008090033",
  "linkReferences": {},
  "deployedLinkReferences": {}
}