{
  "_format": "hh-sol-artifact-1",
  "contractName": "RewardPool",
  "sourceName": "contracts/RewardPool.sol",
  "abi": [
    {
      "inputs": [],
      "stateMutability": "nonpayable",
      "type": "constructor"
    },
    {
      "anonymous": false,
      "inputs": [
        {
          "indexed": false,
          "internalType": "address",
          "name": "previousAdmin",
          "type": "address"
        },
        {
          "indexed": false,
          "internalType": "address",
          "name": "newAdmin",
          "type": "address"
        }
      ],
      "name": "AdminChanged",
      "type": "event"
    },
    {
      "anonymous": false,
      "inputs": [
        {
          "indexed": true,
          "internalType": "address",
          "name": "beacon",
          "type": "address"
        }
      ],
      "name": "BeaconUpgraded",
      "type": "event"
    },
    {
      "anonymous": false,
      "inputs": [
        {
          "indexed": false,
          "internalType": "uint8",
          "name": "version",
          "type": "uint8"
        }
      ],
      "name": "Initialized",
      "type": "event"
    },
    {
      "anonymous": false,
      "inputs": [
        {
          "indexed": true,
          "internalType": "address",
          "name": "previousOwner",
          "type": "address"
        },
        {
          "indexed": true,
          "internalType": "address",
          "name": "newOwner",
          "type": "address"
        }
      ],
      "name": "OwnershipTransferred",
      "type": "event"
    },
    {
      "anonymous": false,
      "inputs": [
        {
          "indexed": true,
          "internalType": "address",
          "name": "escrowAddress",
          "type": "address"
        },
        {
          "indexed": true,
          "internalType": "address",
          "name": "staker",
          "type": "address"
        },
        {
          "indexed": true,
          "internalType": "address",
          "name": "slasher",
          "type": "address"
        },
        {
          "indexed": false,
          "internalType": "uint256",
          "name": "tokens",
          "type": "uint256"
        }
      ],
      "name": "RewardAdded",
      "type": "event"
    },
    {
      "anonymous": false,
      "inputs": [
        {
          "indexed": true,
          "internalType": "address",
          "name": "implementation",
          "type": "address"
        }
      ],
      "name": "Upgraded",
      "type": "event"
    },
    {
      "inputs": [
        {
          "internalType": "address",
          "name": "_escrowAddress",
          "type": "address"
        },
        {
          "internalType": "address",
          "name": "_staker",
          "type": "address"
        },
        {
          "internalType": "address",
          "name": "_slasher",
          "type": "address"
        },
        {
          "internalType": "uint256",
          "name": "_tokens",
          "type": "uint256"
        }
      ],
      "name": "addReward",
      "outputs": [],
      "stateMutability": "nonpayable",
      "type": "function"
    },
    {
      "inputs": [
        {
          "internalType": "address",
          "name": "_escrowAddress",
          "type": "address"
        }
      ],
      "name": "distributeReward",
      "outputs": [],
      "stateMutability": "nonpayable",
      "type": "function"
    },
    {
      "inputs": [],
      "name": "fees",
      "outputs": [
        {
          "internalType": "uint256",
          "name": "",
          "type": "uint256"
        }
      ],
      "stateMutability": "view",
      "type": "function"
    },
    {
      "inputs": [
        {
          "internalType": "address",
          "name": "_escrowAddress",
          "type": "address"
        }
      ],
      "name": "getRewards",
      "outputs": [
        {
          "components": [
            {
              "internalType": "address",
              "name": "escrowAddress",
              "type": "address"
            },
            {
              "internalType": "address",
              "name": "slasher",
              "type": "address"
            },
            {
              "internalType": "uint256",
              "name": "tokens",
              "type": "uint256"
            }
          ],
          "internalType": "struct IRewardPool.Reward[]",
          "name": "",
          "type": "tuple[]"
        }
      ],
      "stateMutability": "view",
      "type": "function"
    },
    {
      "inputs": [
        {
          "internalType": "address",
          "name": "_token",
          "type": "address"
        },
        {
          "internalType": "address",
          "name": "_staking",
          "type": "address"
        },
        {
          "internalType": "uint256",
          "name": "_fees",
          "type": "uint256"
        }
      ],
      "name": "initialize",
      "outputs": [],
      "stateMutability": "payable",
      "type": "function"
    },
    {
      "inputs": [],
      "name": "owner",
      "outputs": [
        {
          "internalType": "address",
          "name": "",
          "type": "address"
        }
      ],
      "stateMutability": "view",
      "type": "function"
    },
    {
      "inputs": [],
      "name": "proxiableUUID",
      "outputs": [
        {
          "internalType": "bytes32",
          "name": "",
          "type": "bytes32"
        }
      ],
      "stateMutability": "view",
      "type": "function"
    },
    {
      "inputs": [],
      "name": "renounceOwnership",
      "outputs": [],
      "stateMutability": "nonpayable",
      "type": "function"
    },
    {
      "inputs": [
        {
          "internalType": "address",
          "name": "",
          "type": "address"
        },
        {
          "internalType": "uint256",
          "name": "",
          "type": "uint256"
        }
      ],
      "name": "rewards",
      "outputs": [
        {
          "internalType": "address",
          "name": "escrowAddress",
          "type": "address"
        },
        {
          "internalType": "address",
          "name": "slasher",
          "type": "address"
        },
        {
          "internalType": "uint256",
          "name": "tokens",
          "type": "uint256"
        }
      ],
      "stateMutability": "view",
      "type": "function"
    },
    {
      "inputs": [],
      "name": "staking",
      "outputs": [
        {
          "internalType": "address",
          "name": "",
          "type": "address"
        }
      ],
      "stateMutability": "view",
      "type": "function"
    },
    {
      "inputs": [],
      "name": "token",
      "outputs": [
        {
          "internalType": "address",
          "name": "",
          "type": "address"
        }
      ],
      "stateMutability": "view",
      "type": "function"
    },
    {
      "inputs": [],
      "name": "totalFee",
      "outputs": [
        {
          "internalType": "uint256",
          "name": "",
          "type": "uint256"
        }
      ],
      "stateMutability": "view",
      "type": "function"
    },
    {
      "inputs": [
        {
          "internalType": "address",
          "name": "newOwner",
          "type": "address"
        }
      ],
      "name": "transferOwnership",
      "outputs": [],
      "stateMutability": "nonpayable",
      "type": "function"
    },
    {
      "inputs": [
        {
          "internalType": "address",
          "name": "newImplementation",
          "type": "address"
        }
      ],
      "name": "upgradeTo",
      "outputs": [],
      "stateMutability": "nonpayable",
      "type": "function"
    },
    {
      "inputs": [
        {
          "internalType": "address",
          "name": "newImplementation",
          "type": "address"
        },
        {
          "internalType": "bytes",
          "name": "data",
          "type": "bytes"
        }
      ],
      "name": "upgradeToAndCall",
      "outputs": [],
      "stateMutability": "payable",
      "type": "function"
    },
    {
      "inputs": [
        {
          "internalType": "address",
          "name": "to",
          "type": "address"
        }
      ],
      "name": "withdraw",
      "outputs": [],
      "stateMutability": "nonpayable",
      "type": "function"
    }
  ],
  "bytecode": "0x60a06040523060805234801561001457600080fd5b5061001d610022565b6100e1565b600054610100900460ff161561008e5760405162461bcd60e51b815260206004820152602760248201527f496e697469616c697a61626c653a20636f6e747261637420697320696e697469604482015266616c697a696e6760c81b606482015260840160405180910390fd5b60005460ff908116146100df576000805460ff191660ff9081179091556040519081527f7f26b83ff96e1f2b6a682f133852f6798a09c465da95921460cefb38474024989060200160405180910390a15b565b608051611e4d610118600039600081816106ad0152818161075d015281816108b3015281816109630152610ac70152611e4d6000f3fe6080604052600436106100f35760003560e01c8063715018a61161008a578063b933ceac11610059578063b933ceac14610293578063e2ff99ef146102e6578063f2fde38b14610306578063fc0c546a1461032657600080fd5b8063715018a61461021057806379ee54f7146102255780638da5cb5b146102525780639af1d35a1461027d57600080fd5b80634cf088d9116100c65780634cf088d9146101765780634f1ef286146101c857806351cff8d9146101db57806352d1902d146101fb57600080fd5b8063092193ab146100f85780631794bb3c1461011a5780631df4ccfc1461012d5780633659cfe614610156575b600080fd5b34801561010457600080fd5b50610118610113366004611a42565b610353565b005b610118610128366004611a5d565b6104f5565b34801561013957600080fd5b5061014360cd5481565b6040519081526020015b60405180910390f35b34801561016257600080fd5b50610118610171366004611a42565b610695565b34801561018257600080fd5b5060ca546101a39073ffffffffffffffffffffffffffffffffffffffff1681565b60405173ffffffffffffffffffffffffffffffffffffffff909116815260200161014d565b6101186101d6366004611ac8565b61089b565b3480156101e757600080fd5b506101186101f6366004611a42565b610a92565b34801561020757600080fd5b50610143610aad565b34801561021c57600080fd5b50610118610b99565b34801561023157600080fd5b50610245610240366004611a42565b610bad565b60405161014d9190611ba8565b34801561025e57600080fd5b5060335473ffffffffffffffffffffffffffffffffffffffff166101a3565b34801561028957600080fd5b5061014360cb5481565b34801561029f57600080fd5b506102b36102ae366004611c1a565b610c64565b6040805173ffffffffffffffffffffffffffffffffffffffff94851681529390921660208401529082015260600161014d565b3480156102f257600080fd5b50610118610301366004611c44565b610cbe565b34801561031257600080fd5b50610118610321366004611a42565b610e62565b34801561033257600080fd5b5060c9546101a39073ffffffffffffffffffffffffffffffffffffffff1681565b73ffffffffffffffffffffffffffffffffffffffff8116600090815260cc6020908152604080832080548251818502810185019093528083529192909190849084015b828210156103fd5760008481526020908190206040805160608101825260038602909201805473ffffffffffffffffffffffffffffffffffffffff908116845260018083015490911684860152600290910154918301919091529083529092019101610396565b5050505090506000815111610473576040517f08c379a000000000000000000000000000000000000000000000000000000000815260206004820152601560248201527f4e6f207265776172647320666f7220657363726f77000000000000000000000060448201526064015b60405180910390fd5b73ffffffffffffffffffffffffffffffffffffffff8216600090815260cc602052604081206104a1916119ae565b60005b81518110156104f05760008282815181106104c1576104c1611c8f565b602002602001015190506104dd81602001518260400151610f16565b506104e9600182611ced565b90506104a4565b505050565b600054610100900460ff16158080156105155750600054600160ff909116105b8061052f5750303b15801561052f575060005460ff166001145b6105bb576040517f08c379a000000000000000000000000000000000000000000000000000000000815260206004820152602e60248201527f496e697469616c697a61626c653a20636f6e747261637420697320616c72656160448201527f647920696e697469616c697a6564000000000000000000000000000000000000606482015260840161046a565b600080547fffffffffffffffffffffffffffffffffffffffffffffffffffffffffffffff00166001179055801561061957600080547fffffffffffffffffffffffffffffffffffffffffffffffffffffffffffff00ff166101001790555b610621610f3a565b61062c848484610fda565b801561068f57600080547fffffffffffffffffffffffffffffffffffffffffffffffffffffffffffff00ff169055604051600181527f7f26b83ff96e1f2b6a682f133852f6798a09c465da95921460cefb38474024989060200160405180910390a15b50505050565b3073ffffffffffffffffffffffffffffffffffffffff7f000000000000000000000000000000000000000000000000000000000000000016141561075b576040517f08c379a000000000000000000000000000000000000000000000000000000000815260206004820152602c60248201527f46756e6374696f6e206d7573742062652063616c6c6564207468726f7567682060448201527f64656c656761746563616c6c0000000000000000000000000000000000000000606482015260840161046a565b7f000000000000000000000000000000000000000000000000000000000000000073ffffffffffffffffffffffffffffffffffffffff166107d07f360894a13ba1a3210667c828492db98dca3e2076cc3735a920a3ca505d382bbc5473ffffffffffffffffffffffffffffffffffffffff1690565b73ffffffffffffffffffffffffffffffffffffffff1614610873576040517f08c379a000000000000000000000000000000000000000000000000000000000815260206004820152602c60248201527f46756e6374696f6e206d7573742062652063616c6c6564207468726f7567682060448201527f6163746976652070726f78790000000000000000000000000000000000000000606482015260840161046a565b61087c816110cb565b60408051600080825260208201909252610898918391906110d3565b50565b3073ffffffffffffffffffffffffffffffffffffffff7f0000000000000000000000000000000000000000000000000000000000000000161415610961576040517f08c379a000000000000000000000000000000000000000000000000000000000815260206004820152602c60248201527f46756e6374696f6e206d7573742062652063616c6c6564207468726f7567682060448201527f64656c656761746563616c6c0000000000000000000000000000000000000000606482015260840161046a565b7f000000000000000000000000000000000000000000000000000000000000000073ffffffffffffffffffffffffffffffffffffffff166109d67f360894a13ba1a3210667c828492db98dca3e2076cc3735a920a3ca505d382bbc5473ffffffffffffffffffffffffffffffffffffffff1690565b73ffffffffffffffffffffffffffffffffffffffff1614610a79576040517f08c379a000000000000000000000000000000000000000000000000000000000815260206004820152602c60248201527f46756e6374696f6e206d7573742062652063616c6c6564207468726f7567682060448201527f6163746976652070726f78790000000000000000000000000000000000000000606482015260840161046a565b610a82826110cb565b610a8e828260016110d3565b5050565b610a9a6112e1565b60cd80546000909155610a8e8282610f16565b60003073ffffffffffffffffffffffffffffffffffffffff7f00000000000000000000000000000000000000000000000000000000000000001614610b74576040517f08c379a000000000000000000000000000000000000000000000000000000000815260206004820152603860248201527f555550535570677261646561626c653a206d757374206e6f742062652063616c60448201527f6c6564207468726f7567682064656c656761746563616c6c0000000000000000606482015260840161046a565b507f360894a13ba1a3210667c828492db98dca3e2076cc3735a920a3ca505d382bbc90565b610ba16112e1565b610bab6000611362565b565b73ffffffffffffffffffffffffffffffffffffffff8116600090815260cc60209081526040808320805482518185028101850190935280835260609492939192909184015b82821015610c595760008481526020908190206040805160608101825260038602909201805473ffffffffffffffffffffffffffffffffffffffff908116845260018083015490911684860152600290910154918301919091529083529092019101610bf2565b505050509050919050565b60cc6020528160005260406000208181548110610c8057600080fd5b600091825260209091206003909102018054600182015460029092015473ffffffffffffffffffffffffffffffffffffffff91821694509116915083565b60ca5473ffffffffffffffffffffffffffffffffffffffff163314610d3f576040517f08c379a000000000000000000000000000000000000000000000000000000000815260206004820152601e60248201527f43616c6c6572206973206e6f74207374616b696e6720636f6e74726163740000604482015260640161046a565b60cb54811015610d5f578060cd54610d579190611ced565b60cd5561068f565b600060cb5482610d6f9190611d05565b905060cb5460cd54610d819190611ced565b60cd556040805160608101825273ffffffffffffffffffffffffffffffffffffffff8781168083528682166020808501828152858701888152600085815260cc845288812080546001808201835591835291859020895160039093020180549289167fffffffffffffffffffffffff0000000000000000000000000000000000000000938416178155935190840180549189169190921617905551600290910155945186815293949093928916927f79cb25c3c609d10efc8ab481d1c4dd17e3f2e8a5674138ae104ca4685f409034910160405180910390a4505050505050565b610e6a6112e1565b73ffffffffffffffffffffffffffffffffffffffff8116610f0d576040517f08c379a000000000000000000000000000000000000000000000000000000000815260206004820152602660248201527f4f776e61626c653a206e6577206f776e657220697320746865207a65726f206160448201527f6464726573730000000000000000000000000000000000000000000000000000606482015260840161046a565b61089881611362565b60c954610a8e9073ffffffffffffffffffffffffffffffffffffffff1683836113d9565b600054610100900460ff16610fd1576040517f08c379a000000000000000000000000000000000000000000000000000000000815260206004820152602b60248201527f496e697469616c697a61626c653a20636f6e7472616374206973206e6f74206960448201527f6e697469616c697a696e67000000000000000000000000000000000000000000606482015260840161046a565b610bab33611362565b600054610100900460ff16611071576040517f08c379a000000000000000000000000000000000000000000000000000000000815260206004820152602b60248201527f496e697469616c697a61626c653a20636f6e7472616374206973206e6f74206960448201527f6e697469616c697a696e67000000000000000000000000000000000000000000606482015260840161046a565b60c9805473ffffffffffffffffffffffffffffffffffffffff9485167fffffffffffffffffffffffff00000000000000000000000000000000000000009182161790915560ca80549390941692169190911790915560cb55565b6108986112e1565b7f4910fdfa16fed3260ed0e7147f7cc6da11a60208b5b9406d12a635614ffd91435460ff1615611106576104f083611466565b8273ffffffffffffffffffffffffffffffffffffffff166352d1902d6040518163ffffffff1660e01b815260040160206040518083038186803b15801561114c57600080fd5b505afa92505050801561119a575060408051601f3d9081017fffffffffffffffffffffffffffffffffffffffffffffffffffffffffffffffe016820190925261119791810190611d1c565b60015b611226576040517f08c379a000000000000000000000000000000000000000000000000000000000815260206004820152602e60248201527f45524331393637557067726164653a206e657720696d706c656d656e7461746960448201527f6f6e206973206e6f742055555053000000000000000000000000000000000000606482015260840161046a565b7f360894a13ba1a3210667c828492db98dca3e2076cc3735a920a3ca505d382bbc81146112d5576040517f08c379a000000000000000000000000000000000000000000000000000000000815260206004820152602960248201527f45524331393637557067726164653a20756e737570706f727465642070726f7860448201527f6961626c65555549440000000000000000000000000000000000000000000000606482015260840161046a565b506104f0838383611570565b60335473ffffffffffffffffffffffffffffffffffffffff163314610bab576040517f08c379a000000000000000000000000000000000000000000000000000000000815260206004820181905260248201527f4f776e61626c653a2063616c6c6572206973206e6f7420746865206f776e6572604482015260640161046a565b6033805473ffffffffffffffffffffffffffffffffffffffff8381167fffffffffffffffffffffffff0000000000000000000000000000000000000000831681179093556040519116919082907f8be0079c531659141344cd1fd0a4f28419497f9722a3daafe3b4186f6b6457e090600090a35050565b6040805173ffffffffffffffffffffffffffffffffffffffff8416602482015260448082018490528251808303909101815260649091019091526020810180517bffffffffffffffffffffffffffffffffffffffffffffffffffffffff167fa9059cbb000000000000000000000000000000000000000000000000000000001790526104f0908490611595565b73ffffffffffffffffffffffffffffffffffffffff81163b61150a576040517f08c379a000000000000000000000000000000000000000000000000000000000815260206004820152602d60248201527f455243313936373a206e657720696d706c656d656e746174696f6e206973206e60448201527f6f74206120636f6e747261637400000000000000000000000000000000000000606482015260840161046a565b7f360894a13ba1a3210667c828492db98dca3e2076cc3735a920a3ca505d382bbc80547fffffffffffffffffffffffff00000000000000000000000000000000000000001673ffffffffffffffffffffffffffffffffffffffff92909216919091179055565b611579836116a4565b6000825111806115865750805b156104f05761068f83836116f1565b60006115f7826040518060400160405280602081526020017f5361666545524332303a206c6f772d6c6576656c2063616c6c206661696c65648152508573ffffffffffffffffffffffffffffffffffffffff1661171d9092919063ffffffff16565b90508051600014806116185750808060200190518101906116189190611d35565b6104f0576040517f08c379a000000000000000000000000000000000000000000000000000000000815260206004820152602a60248201527f5361666545524332303a204552433230206f7065726174696f6e20646964206e60448201527f6f74207375636365656400000000000000000000000000000000000000000000606482015260840161046a565b6116ad81611466565b60405173ffffffffffffffffffffffffffffffffffffffff8216907fbc7cd75a20ee27fd9adebab32041f755214dbc6bffa90cc0225b39da2e5c2d3b90600090a250565b60606117168383604051806060016040528060278152602001611df160279139611734565b9392505050565b606061172c84846000856117b9565b949350505050565b60606000808573ffffffffffffffffffffffffffffffffffffffff168560405161175e9190611d83565b600060405180830381855af49150503d8060008114611799576040519150601f19603f3d011682016040523d82523d6000602084013e61179e565b606091505b50915091506117af868383876118d2565b9695505050505050565b60608247101561184b576040517f08c379a000000000000000000000000000000000000000000000000000000000815260206004820152602660248201527f416464726573733a20696e73756666696369656e742062616c616e636520666f60448201527f722063616c6c0000000000000000000000000000000000000000000000000000606482015260840161046a565b6000808673ffffffffffffffffffffffffffffffffffffffff1685876040516118749190611d83565b60006040518083038185875af1925050503d80600081146118b1576040519150601f19603f3d011682016040523d82523d6000602084013e6118b6565b606091505b50915091506118c7878383876118d2565b979650505050505050565b6060831561196557825161195e5773ffffffffffffffffffffffffffffffffffffffff85163b61195e576040517f08c379a000000000000000000000000000000000000000000000000000000000815260206004820152601d60248201527f416464726573733a2063616c6c20746f206e6f6e2d636f6e7472616374000000604482015260640161046a565b508161172c565b61172c838381511561197a5781518083602001fd5b806040517f08c379a000000000000000000000000000000000000000000000000000000000815260040161046a9190611d9f565b508054600082556003029060005260206000209081019061089891905b80821115611a155780547fffffffffffffffffffffffff000000000000000000000000000000000000000090811682556001820180549091169055600060028201556003016119cb565b5090565b803573ffffffffffffffffffffffffffffffffffffffff81168114611a3d57600080fd5b919050565b600060208284031215611a5457600080fd5b61171682611a19565b600080600060608486031215611a7257600080fd5b611a7b84611a19565b9250611a8960208501611a19565b9150604084013590509250925092565b7f4e487b7100000000000000000000000000000000000000000000000000000000600052604160045260246000fd5b60008060408385031215611adb57600080fd5b611ae483611a19565b9150602083013567ffffffffffffffff80821115611b0157600080fd5b818501915085601f830112611b1557600080fd5b813581811115611b2757611b27611a99565b604051601f82017fffffffffffffffffffffffffffffffffffffffffffffffffffffffffffffffe0908116603f01168101908382118183101715611b6d57611b6d611a99565b81604052828152886020848701011115611b8657600080fd5b8260208601602083013760006020848301015280955050505050509250929050565b602080825282518282018190526000919060409081850190868401855b82811015611c0d578151805173ffffffffffffffffffffffffffffffffffffffff90811686528782015116878601528501518585015260609093019290850190600101611bc5565b5091979650505050505050565b60008060408385031215611c2d57600080fd5b611c3683611a19565b946020939093013593505050565b60008060008060808587031215611c5a57600080fd5b611c6385611a19565b9350611c7160208601611a19565b9250611c7f60408601611a19565b9396929550929360600135925050565b7f4e487b7100000000000000000000000000000000000000000000000000000000600052603260045260246000fd5b7f4e487b7100000000000000000000000000000000000000000000000000000000600052601160045260246000fd5b60008219821115611d0057611d00611cbe565b500190565b600082821015611d1757611d17611cbe565b500390565b600060208284031215611d2e57600080fd5b5051919050565b600060208284031215611d4757600080fd5b8151801515811461171657600080fd5b60005b83811015611d72578181015183820152602001611d5a565b8381111561068f5750506000910152565b60008251611d95818460208701611d57565b9190910192915050565b6020815260008251806020840152611dbe816040850160208701611d57565b601f017fffffffffffffffffffffffffffffffffffffffffffffffffffffffffffffffe016919091016040019291505056fe416464726573733a206c6f772d6c6576656c2064656c65676174652063616c6c206661696c6564a2646970667358221220e6877990fb4bf3984d215b6a9d7f4cfabd101bc1e35ef9bb258cfb9c91ba62f664736f6c63430008090033",
  "linkReferences": {},
  "deployedLinkReferences": {}
}